{
  "_format": "hh-sol-artifact-1",
  "contractName": "Gateway",
  "sourceName": "contracts/Gateway.sol",
  "abi": [
    {
      "inputs": [],
      "stateMutability": "nonpayable",
      "type": "constructor"
    },
    {
      "inputs": [],
      "name": "AccessControlBadConfirmation",
      "type": "error"
    },
    {
      "inputs": [
        {
          "internalType": "address",
          "name": "account",
          "type": "address"
        },
        {
          "internalType": "bytes32",
          "name": "neededRole",
          "type": "bytes32"
        }
      ],
      "name": "AccessControlUnauthorizedAccount",
      "type": "error"
    },
    {
      "inputs": [],
      "name": "InvalidInitialization",
      "type": "error"
    },
    {
      "inputs": [],
      "name": "NotInitializing",
      "type": "error"
    },
    {
      "inputs": [],
      "name": "ReentrancyGuardReentrantCall",
      "type": "error"
    },
    {
      "anonymous": false,
      "inputs": [
        {
          "indexed": true,
          "internalType": "address",
          "name": "from",
          "type": "address"
        },
        {
          "indexed": true,
          "internalType": "uint256",
          "name": "id",
          "type": "uint256"
        },
        {
          "indexed": false,
          "internalType": "bytes",
          "name": "externalTxId",
          "type": "bytes"
        },
        {
          "indexed": false,
          "internalType": "bytes",
          "name": "billId",
          "type": "bytes"
        },
        {
          "indexed": false,
          "internalType": "uint256",
          "name": "timestamp",
          "type": "uint256"
        }
      ],
      "name": "BillProcessed",
      "type": "event"
    },
    {
      "anonymous": false,
      "inputs": [
        {
          "indexed": false,
          "internalType": "uint64",
          "name": "version",
          "type": "uint64"
        }
      ],
      "name": "Initialized",
      "type": "event"
    },
    {
      "anonymous": false,
      "inputs": [
        {
          "indexed": true,
          "internalType": "bytes32",
          "name": "role",
          "type": "bytes32"
        },
        {
          "indexed": true,
          "internalType": "bytes32",
          "name": "previousAdminRole",
          "type": "bytes32"
        },
        {
          "indexed": true,
          "internalType": "bytes32",
          "name": "newAdminRole",
          "type": "bytes32"
        }
      ],
      "name": "RoleAdminChanged",
      "type": "event"
    },
    {
      "anonymous": false,
      "inputs": [
        {
          "indexed": true,
          "internalType": "bytes32",
          "name": "role",
          "type": "bytes32"
        },
        {
          "indexed": true,
          "internalType": "address",
          "name": "account",
          "type": "address"
        },
        {
          "indexed": true,
          "internalType": "address",
          "name": "sender",
          "type": "address"
        }
      ],
      "name": "RoleGranted",
      "type": "event"
    },
    {
      "anonymous": false,
      "inputs": [
        {
          "indexed": true,
          "internalType": "bytes32",
          "name": "role",
          "type": "bytes32"
        },
        {
          "indexed": true,
          "internalType": "address",
          "name": "account",
          "type": "address"
        },
        {
          "indexed": true,
          "internalType": "address",
          "name": "sender",
          "type": "address"
        }
      ],
      "name": "RoleRevoked",
      "type": "event"
    },
    {
      "anonymous": false,
      "inputs": [
        {
          "indexed": true,
          "internalType": "address",
          "name": "tokenAddress",
          "type": "address"
        }
      ],
      "name": "TokenDelisted",
      "type": "event"
    },
    {
      "anonymous": false,
      "inputs": [
        {
          "indexed": true,
          "internalType": "address",
          "name": "tokenAddress",
          "type": "address"
        }
      ],
      "name": "TokenEnlisted",
      "type": "event"
    },
    {
      "inputs": [],
      "name": "DEFAULT_ADMIN_ROLE",
      "outputs": [
        {
          "internalType": "bytes32",
          "name": "",
          "type": "bytes32"
        }
      ],
      "stateMutability": "view",
      "type": "function"
    },
    {
      "inputs": [],
      "name": "ERROR_EXPIRED_RESOURCE",
      "outputs": [
        {
          "internalType": "string",
          "name": "",
          "type": "string"
        }
      ],
      "stateMutability": "view",
      "type": "function"
    },
    {
      "inputs": [],
      "name": "ERROR_INVALID_PRICE",
      "outputs": [
        {
          "internalType": "string",
          "name": "",
          "type": "string"
        }
      ],
      "stateMutability": "view",
      "type": "function"
    },
    {
      "inputs": [],
      "name": "ERROR_NOT_FOUND",
      "outputs": [
        {
          "internalType": "string",
          "name": "",
          "type": "string"
        }
      ],
      "stateMutability": "view",
      "type": "function"
    },
    {
      "inputs": [],
      "name": "ERROR_PROCESS_FAILED",
      "outputs": [
        {
          "internalType": "string",
          "name": "",
          "type": "string"
        }
      ],
      "stateMutability": "view",
      "type": "function"
    },
    {
      "inputs": [],
      "name": "ERROR_UNAUTHORIZED_ACCESS",
      "outputs": [
        {
          "internalType": "string",
          "name": "",
          "type": "string"
        }
      ],
      "stateMutability": "view",
      "type": "function"
    },
    {
      "inputs": [],
      "name": "MODERATOR_ROLE",
      "outputs": [
        {
          "internalType": "bytes32",
          "name": "",
          "type": "bytes32"
        }
      ],
      "stateMutability": "view",
      "type": "function"
    },
    {
      "inputs": [
        {
          "internalType": "address[]",
          "name": "tokenAddress",
          "type": "address[]"
        }
      ],
      "name": "batchDelistTokens",
      "outputs": [],
      "stateMutability": "nonpayable",
      "type": "function"
    },
    {
      "inputs": [
        {
          "internalType": "address[]",
          "name": "tokenAddress",
          "type": "address[]"
        }
      ],
      "name": "batchEnlistTokens",
      "outputs": [],
      "stateMutability": "nonpayable",
      "type": "function"
    },
    {
      "inputs": [],
      "name": "billCount",
      "outputs": [
        {
          "internalType": "uint256",
          "name": "",
          "type": "uint256"
        }
      ],
      "stateMutability": "view",
      "type": "function"
    },
    {
      "inputs": [
        {
          "internalType": "bytes32",
          "name": "role",
          "type": "bytes32"
        }
      ],
      "name": "getRoleAdmin",
      "outputs": [
        {
          "internalType": "bytes32",
          "name": "",
          "type": "bytes32"
        }
      ],
      "stateMutability": "view",
      "type": "function"
    },
    {
      "inputs": [
        {
          "internalType": "bytes32",
          "name": "role",
          "type": "bytes32"
        },
        {
          "internalType": "address",
          "name": "account",
          "type": "address"
        }
      ],
      "name": "grantRole",
      "outputs": [],
      "stateMutability": "nonpayable",
      "type": "function"
    },
    {
      "inputs": [
        {
          "internalType": "bytes32",
          "name": "role",
          "type": "bytes32"
        },
        {
          "internalType": "address",
          "name": "account",
          "type": "address"
        }
      ],
      "name": "hasRole",
      "outputs": [
        {
          "internalType": "bool",
          "name": "",
          "type": "bool"
        }
      ],
      "stateMutability": "view",
      "type": "function"
    },
    {
      "inputs": [
        {
          "internalType": "address",
          "name": "_admin",
          "type": "address"
        }
      ],
      "name": "init_base_app",
      "outputs": [],
      "stateMutability": "nonpayable",
      "type": "function"
    },
    {
      "inputs": [
        {
          "internalType": "address",
          "name": "admin",
          "type": "address"
        }
      ],
      "name": "init_gateway",
      "outputs": [],
      "stateMutability": "nonpayable",
      "type": "function"
    },
    {
      "inputs": [
        {
          "internalType": "uint256",
          "name": "_amount",
          "type": "uint256"
        },
        {
          "internalType": "bytes",
          "name": "externalTxId",
          "type": "bytes"
        },
        {
          "internalType": "bytes",
          "name": "billId",
          "type": "bytes"
        },
        {
          "internalType": "bytes",
          "name": "providerId",
          "type": "bytes"
        },
        {
          "internalType": "address",
          "name": "tokenAddress",
          "type": "address"
        },
        {
          "internalType": "enum TransactionType",
          "name": "txType",
          "type": "uint8"
        },
        {
          "internalType": "enum BillType",
          "name": "billType",
          "type": "uint8"
        }
      ],
      "name": "processBill",
      "outputs": [],
      "stateMutability": "payable",
      "type": "function"
    },
    {
      "inputs": [
        {
          "internalType": "bytes32",
          "name": "role",
          "type": "bytes32"
        },
        {
          "internalType": "address",
          "name": "callerConfirmation",
          "type": "address"
        }
      ],
      "name": "renounceRole",
      "outputs": [],
      "stateMutability": "nonpayable",
      "type": "function"
    },
    {
      "inputs": [
        {
          "internalType": "bytes32",
          "name": "role",
          "type": "bytes32"
        },
        {
          "internalType": "address",
          "name": "account",
          "type": "address"
        }
      ],
      "name": "revokeRole",
      "outputs": [],
      "stateMutability": "nonpayable",
      "type": "function"
    },
    {
      "inputs": [
        {
          "internalType": "bytes4",
          "name": "interfaceId",
          "type": "bytes4"
        }
      ],
      "name": "supportsInterface",
      "outputs": [
        {
          "internalType": "bool",
          "name": "",
          "type": "bool"
        }
      ],
      "stateMutability": "view",
      "type": "function"
    },
    {
      "inputs": [],
      "name": "txCount",
      "outputs": [
        {
          "internalType": "uint256",
          "name": "",
          "type": "uint256"
        }
      ],
      "stateMutability": "view",
      "type": "function"
    }
  ],
  "bytecode": "0x6080604052348015600f57600080fd5b506016601a565b60ca565b7ff0c57e16840df040f15088dc2f81fe391c3923bec73e23a9662efc9c229c6a00805468010000000000000000900460ff161560695760405163f92ee8a960e01b815260040160405180910390fd5b80546001600160401b039081161460c75780546001600160401b0319166001600160401b0390811782556040519081527fc7f505b2f371ae2175ee4913f4499e1f2633a7b5936321eed1cdaeb6115181d29060200160405180910390a15b50565b611616806100d96000396000f3fe60806040526004361061011f5760003560e01c80635eead76c116100a05780638fdeb4a6116100645780638fdeb4a61461035d57806391d148541461037d578063a217fddf1461039d578063ad4fb5cd146103b2578063d547741f146103df57600080fd5b80635eead76c146102a9578063797669c9146102bc578063846d9c1b146102f05780638a2b34b2146103105780638c1621d91461033d57600080fd5b806336568abe116100e757806336568abe146102105780633c5406871461023057806341dc3412146102465780635c1072641461025c5780635ecf5a021461028957600080fd5b806301ffc9a7146101245780631ceae9c714610159578063248a9ca3146101935780632f2ff15d146101c1578063362c3ab8146101e3575b600080fd5b34801561013057600080fd5b5061014461013f366004611004565b6103ff565b60405190151581526020015b60405180910390f35b34801561016557600080fd5b50610186604051806040016040528060018152602001600d60fa1b81525081565b6040516101509190611085565b34801561019f57600080fd5b506101b36101ae366004611098565b610436565b604051908152602001610150565b3480156101cd57600080fd5b506101e16101dc3660046110cd565b610458565b005b3480156101ef57600080fd5b50610186604051806040016040528060018152602001601960f91b81525081565b34801561021c57600080fd5b506101e161022b3660046110cd565b61047a565b34801561023c57600080fd5b506101b360005481565b34801561025257600080fd5b506101b360015481565b34801561026857600080fd5b50610186604051806040016040528060018152602001603360f81b81525081565b34801561029557600080fd5b506101e16102a4366004611140565b6104b2565b6101e16102b7366004611282565b6105fc565b3480156102c857600080fd5b506101b37f71f3d55856e4058ed06ee057d79ada615f65cdf5f9ee88181b914225088f834f81565b3480156102fc57600080fd5b506101e161030b366004611352565b610b3d565b34801561031c57600080fd5b50610186604051806040016040528060018152602001600360fc1b81525081565b34801561034957600080fd5b506101e1610358366004611140565b610b5c565b34801561036957600080fd5b506101e1610378366004611352565b610c55565b34801561038957600080fd5b506101446103983660046110cd565b610dcd565b3480156103a957600080fd5b506101b3600081565b3480156103be57600080fd5b50610186604051806040016040528060018152602001603160f81b81525081565b3480156103eb57600080fd5b506101e16103fa3660046110cd565b610e05565b60006001600160e01b03198216637965db0b60e01b148061043057506301ffc9a760e01b6001600160e01b03198316145b92915050565b60009081526000805160206115c1833981519152602052604090206001015490565b61046182610436565b61046a81610e21565b6104748383610e2e565b50505050565b6001600160a01b03811633146104a35760405163334bd91960e11b815260040160405180910390fd5b6104ad8282610ed3565b505050565b60006104bd81610e21565b60005b82518110156104ad5760006001600160a01b03168382815181106104e6576104e661136d565b60200260200101516001600160a01b0316146105f4576001600460008584815181106105145761051461136d565b60200260200101516001600160a01b03166001600160a01b0316815260200190815260200160002060006101000a81548160ff02191690831515021790555060028382815181106105675761056761136d565b60209081029190910181015182546001810184556000938452919092200180546001600160a01b0319166001600160a01b0390921691909117905582518390829081106105b6576105b661136d565b60200260200101516001600160a01b03167fbd6a5d5c39e79fb0c106549a796785dee2d2387843ffc3f10dddc5749f83eb4e60405160405180910390a25b6001016104c0565b826001600160a01b0381161561067b576001600160a01b0381166000908152600460209081526040918290205482518084019093526001808452603160f81b9284019290925260ff161515149061065290610f4f565b906106795760405162461bcd60e51b81526004016106709190611085565b60405180910390fd5b505b60006001600160a01b0385166106d857600034116106b1604051806040016040528060018152602001601960f91b815250610f4f565b906106cf5760405162461bcd60e51b81526004016106709190611085565b50349050610850565b6040516370a0823160e01b815233600482015285908a906001600160a01b038316906370a0823190602401602060405180830381865afa158015610720573d6000803e3d6000fd5b505050506040513d601f19601f820116820180604052508101906107449190611383565b10158015610752575060008a115b610774604051806040016040528060018152602001601960f91b815250610f4f565b906107925760405162461bcd60e51b81526004016106709190611085565b506040516323b872dd60e01b8152336004820152306024820152604481018b90526001600160a01b038216906323b872dd906064016020604051808303816000875af11580156107e6573d6000803e3d6000fd5b505050506040513d601f19601f8201168201806040525081019061080a919061139c565b61082c604051806040016040528060018152602001603360f81b815250610f4f565b9061084a5760405162461bcd60e51b81526004016106709190611085565b50899150505b6040518060c00160405280888152602001878152602001846003811115610879576108796113be565b8152336020808301919091526040808301859052426060909301929092526001546000908152600390915220815181906108b3908261145c565b50602082015160018201906108c8908261145c565b50604082015160028201805460ff191660018360038111156108ec576108ec6113be565b021790555060608201516002820180546001600160a01b0390921661010002610100600160a81b03199092169190911790556080820151600382015560a090910151600490910155600154604051600690610948908a9061151b565b9081526020016040518091039020819055506000805490506040518061012001604052808a8152602001600154815260200186600181111561098c5761098c6113be565b81523360208083019190915260408083018690526000606084018190524260808501526001600160a01b038b1660a08501528151808401835281815260c09094019390935284835260059091529020815181906109e9908261145c565b506020820151816001015560408201518160020160006101000a81548160ff02191690836001811115610a1e57610a1e6113be565b02179055506060820151600282018054610100600160a81b0319166101006001600160a01b039384168102919091179091556080840151600384015560a0840151600484015560c0840151600584015560e08401516006840180546001600160a01b03191691909316179091558201516007820190610a9d908261145c565b509050508060078a604051610ab2919061151b565b90815260405190819003602001902055600080549080610ad183611537565b909155505060018054906000610ae683611537565b919050555080336001600160a01b03167fedf3349670b41945341119564d527ccbbf9f295974c248c57ee6fde8a1e6db198b8b42604051610b299392919061155e565b60405180910390a350505050505050505050565b610b45610f78565b610b4d610fc3565b610b58600082610e2e565b5050565b6000610b6781610e21565b60005b82518110156104ad5760006001600160a01b0316838281518110610b9057610b9061136d565b60200260200101516001600160a01b031614610c4d57600060046000858481518110610bbe57610bbe61136d565b60200260200101516001600160a01b03166001600160a01b0316815260200190815260200160002060006101000a81548160ff021916908315150217905550828181518110610c0f57610c0f61136d565b60200260200101516001600160a01b03167f6621c4efc5efa31320394260425b7d14cbb9d7e3754b2c98c04af66b1cbf315b60405160405180910390a25b600101610b6a565b7ff0c57e16840df040f15088dc2f81fe391c3923bec73e23a9662efc9c229c6a008054600160401b810460ff16159067ffffffffffffffff16600081158015610c9b5750825b905060008267ffffffffffffffff166001148015610cb85750303b155b905081158015610cc6575080155b15610ce45760405163f92ee8a960e01b815260040160405180910390fd5b845467ffffffffffffffff191660011785558315610d0e57845460ff60401b1916600160401b1785555b610d16610fc3565b610d1f86610b3d565b610d497f71f3d55856e4058ed06ee057d79ada615f65cdf5f9ee88181b914225088f834f87610e2e565b506000805260046020527f17ef568e3e12ab5b9c7254a8d58478811de00f9e6eb34345acd53bf8fd09d3ec805460ff191660011790558315610dc557845460ff60401b19168555604051600181527fc7f505b2f371ae2175ee4913f4499e1f2633a7b5936321eed1cdaeb6115181d29060200160405180910390a15b505050505050565b60009182526000805160206115c1833981519152602090815260408084206001600160a01b0393909316845291905290205460ff1690565b610e0e82610436565b610e1781610e21565b6104748383610ed3565b610e2b8133610fcb565b50565b60006000805160206115c1833981519152610e498484610dcd565b610ec9576000848152602082815260408083206001600160a01b03871684529091529020805460ff19166001179055610e7f3390565b6001600160a01b0316836001600160a01b0316857f2f8788117e7eff1d82e926ec794901d17c78024a50270940304540a733656f0d60405160405180910390a46001915050610430565b6000915050610430565b60006000805160206115c1833981519152610eee8484610dcd565b15610ec9576000848152602082815260408083206001600160a01b0387168085529252808320805460ff1916905551339287917ff6391f5c32d9c69d2a47ea670b442974b53935d1edc7fd64eb21e047a839171b9190a46001915050610430565b606081604051602001610f629190611594565b6040516020818303038152906040529050919050565b7ff0c57e16840df040f15088dc2f81fe391c3923bec73e23a9662efc9c229c6a0054600160401b900460ff16610fc157604051631afcd79f60e31b815260040160405180910390fd5b565b610fc1610f78565b610fd58282610dcd565b610b585760405163e2517d3f60e01b81526001600160a01b038216600482015260248101839052604401610670565b60006020828403121561101657600080fd5b81356001600160e01b03198116811461102e57600080fd5b9392505050565b60005b83811015611050578181015183820152602001611038565b50506000910152565b60008151808452611071816020860160208601611035565b601f01601f19169290920160200192915050565b60208152600061102e6020830184611059565b6000602082840312156110aa57600080fd5b5035919050565b80356001600160a01b03811681146110c857600080fd5b919050565b600080604083850312156110e057600080fd5b823591506110f0602084016110b1565b90509250929050565b634e487b7160e01b600052604160045260246000fd5b604051601f8201601f1916810167ffffffffffffffff81118282101715611138576111386110f9565b604052919050565b60006020828403121561115257600080fd5b813567ffffffffffffffff81111561116957600080fd5b8201601f8101841361117a57600080fd5b803567ffffffffffffffff811115611194576111946110f9565b8060051b6111a46020820161110f565b918252602081840181019290810190878411156111c057600080fd5b6020850194505b838510156111e9576111d8856110b1565b8252602094850194909101906111c7565b979650505050505050565b600082601f83011261120557600080fd5b813567ffffffffffffffff81111561121f5761121f6110f9565b611232601f8201601f191660200161110f565b81815284602083860101111561124757600080fd5b816020850160208301376000918101602001919091529392505050565b8035600281106110c857600080fd5b8035600481106110c857600080fd5b600080600080600080600060e0888a03121561129d57600080fd5b87359650602088013567ffffffffffffffff8111156112bb57600080fd5b6112c78a828b016111f4565b965050604088013567ffffffffffffffff8111156112e457600080fd5b6112f08a828b016111f4565b955050606088013567ffffffffffffffff81111561130d57600080fd5b6113198a828b016111f4565b945050611328608089016110b1565b925061133660a08901611264565b915061134460c08901611273565b905092959891949750929550565b60006020828403121561136457600080fd5b61102e826110b1565b634e487b7160e01b600052603260045260246000fd5b60006020828403121561139557600080fd5b5051919050565b6000602082840312156113ae57600080fd5b8151801515811461102e57600080fd5b634e487b7160e01b600052602160045260246000fd5b600181811c908216806113e857607f821691505b60208210810361140857634e487b7160e01b600052602260045260246000fd5b50919050565b601f8211156104ad57806000526020600020601f840160051c810160208510156114355750805b601f840160051c820191505b818110156114555760008155600101611441565b5050505050565b815167ffffffffffffffff811115611476576114766110f9565b61148a8161148484546113d4565b8461140e565b6020601f8211600181146114be57600083156114a65750848201515b600019600385901b1c1916600184901b178455611455565b600084815260208120601f198516915b828110156114ee57878501518255602094850194600190920191016114ce565b508482101561150c5786840151600019600387901b60f8161c191681555b50505050600190811b01905550565b6000825161152d818460208701611035565b9190910192915050565b60006001820161155757634e487b7160e01b600052601160045260246000fd5b5060010190565b6060815260006115716060830186611059565b82810360208401526115838186611059565b915050826040830152949350505050565b63021219d160e51b8152600082516115b3816004850160208701611035565b919091016004019291505056fe02dd7bc7dec4dceedda775e58dd541e08a116c6c53815c0bd028192f7b626800a26469706673582212205424a6395b64cf0adc34e84cd02de5d4d6f11ada7f32344c98c45606052c642164736f6c634300081c0033",
  "linkReferences": {},
  "deployedLinkReferences": {}
}