{
  "_format": "hh-sol-artifact-1",
  "contractName": "BillcheapToken",
  "sourceName": "contracts/tokens/BCT.sol",
  "abi": [
    {
      "inputs": [],
      "stateMutability": "nonpayable",
      "type": "constructor"
    },
    {
      "inputs": [],
      "name": "ECDSAInvalidSignature",
      "type": "error"
    },
    {
      "inputs": [
        {
          "internalType": "uint256",
          "name": "length",
          "type": "uint256"
        }
      ],
      "name": "ECDSAInvalidSignatureLength",
      "type": "error"
    },
    {
      "inputs": [
        {
          "internalType": "bytes32",
          "name": "s",
          "type": "bytes32"
        }
      ],
      "name": "ECDSAInvalidSignatureS",
      "type": "error"
    },
    {
      "inputs": [
        {
          "internalType": "address",
          "name": "spender",
          "type": "address"
        },
        {
          "internalType": "uint256",
          "name": "allowance",
          "type": "uint256"
        },
        {
          "internalType": "uint256",
          "name": "needed",
          "type": "uint256"
        }
      ],
      "name": "ERC20InsufficientAllowance",
      "type": "error"
    },
    {
      "inputs": [
        {
          "internalType": "address",
          "name": "sender",
          "type": "address"
        },
        {
          "internalType": "uint256",
          "name": "balance",
          "type": "uint256"
        },
        {
          "internalType": "uint256",
          "name": "needed",
          "type": "uint256"
        }
      ],
      "name": "ERC20InsufficientBalance",
      "type": "error"
    },
    {
      "inputs": [
        {
          "internalType": "address",
          "name": "approver",
          "type": "address"
        }
      ],
      "name": "ERC20InvalidApprover",
      "type": "error"
    },
    {
      "inputs": [
        {
          "internalType": "address",
          "name": "receiver",
          "type": "address"
        }
      ],
      "name": "ERC20InvalidReceiver",
      "type": "error"
    },
    {
      "inputs": [
        {
          "internalType": "address",
          "name": "sender",
          "type": "address"
        }
      ],
      "name": "ERC20InvalidSender",
      "type": "error"
    },
    {
      "inputs": [
        {
          "internalType": "address",
          "name": "spender",
          "type": "address"
        }
      ],
      "name": "ERC20InvalidSpender",
      "type": "error"
    },
    {
      "inputs": [
        {
          "internalType": "uint256",
          "name": "deadline",
          "type": "uint256"
        }
      ],
      "name": "ERC2612ExpiredSignature",
      "type": "error"
    },
    {
      "inputs": [
        {
          "internalType": "address",
          "name": "signer",
          "type": "address"
        },
        {
          "internalType": "address",
          "name": "owner",
          "type": "address"
        }
      ],
      "name": "ERC2612InvalidSigner",
      "type": "error"
    },
    {
      "inputs": [],
      "name": "EnforcedPause",
      "type": "error"
    },
    {
      "inputs": [],
      "name": "ExpectedPause",
      "type": "error"
    },
    {
      "inputs": [
        {
          "internalType": "address",
          "name": "account",
          "type": "address"
        },
        {
          "internalType": "uint256",
          "name": "currentNonce",
          "type": "uint256"
        }
      ],
      "name": "InvalidAccountNonce",
      "type": "error"
    },
    {
      "inputs": [],
      "name": "InvalidInitialization",
      "type": "error"
    },
    {
      "inputs": [],
      "name": "NotInitializing",
      "type": "error"
    },
    {
      "inputs": [
        {
          "internalType": "address",
          "name": "owner",
          "type": "address"
        }
      ],
      "name": "OwnableInvalidOwner",
      "type": "error"
    },
    {
      "inputs": [
        {
          "internalType": "address",
          "name": "account",
          "type": "address"
        }
      ],
      "name": "OwnableUnauthorizedAccount",
      "type": "error"
    },
    {
      "anonymous": false,
      "inputs": [
        {
          "indexed": true,
          "internalType": "address",
          "name": "owner",
          "type": "address"
        },
        {
          "indexed": true,
          "internalType": "address",
          "name": "spender",
          "type": "address"
        },
        {
          "indexed": false,
          "internalType": "uint256",
          "name": "value",
          "type": "uint256"
        }
      ],
      "name": "Approval",
      "type": "event"
    },
    {
      "anonymous": false,
      "inputs": [],
      "name": "EIP712DomainChanged",
      "type": "event"
    },
    {
      "anonymous": false,
      "inputs": [
        {
          "indexed": false,
          "internalType": "uint64",
          "name": "version",
          "type": "uint64"
        }
      ],
      "name": "Initialized",
      "type": "event"
    },
    {
      "anonymous": false,
      "inputs": [
        {
          "indexed": true,
          "internalType": "address",
          "name": "previousOwner",
          "type": "address"
        },
        {
          "indexed": true,
          "internalType": "address",
          "name": "newOwner",
          "type": "address"
        }
      ],
      "name": "OwnershipTransferred",
      "type": "event"
    },
    {
      "anonymous": false,
      "inputs": [
        {
          "indexed": false,
          "internalType": "address",
          "name": "account",
          "type": "address"
        }
      ],
      "name": "Paused",
      "type": "event"
    },
    {
      "anonymous": false,
      "inputs": [
        {
          "indexed": true,
          "internalType": "address",
          "name": "from",
          "type": "address"
        },
        {
          "indexed": true,
          "internalType": "address",
          "name": "to",
          "type": "address"
        },
        {
          "indexed": false,
          "internalType": "uint256",
          "name": "value",
          "type": "uint256"
        }
      ],
      "name": "Transfer",
      "type": "event"
    },
    {
      "anonymous": false,
      "inputs": [
        {
          "indexed": false,
          "internalType": "address",
          "name": "account",
          "type": "address"
        }
      ],
      "name": "Unpaused",
      "type": "event"
    },
    {
      "inputs": [],
      "name": "DOMAIN_SEPARATOR",
      "outputs": [
        {
          "internalType": "bytes32",
          "name": "",
          "type": "bytes32"
        }
      ],
      "stateMutability": "view",
      "type": "function"
    },
    {
      "inputs": [
        {
          "internalType": "address",
          "name": "owner",
          "type": "address"
        },
        {
          "internalType": "address",
          "name": "spender",
          "type": "address"
        }
      ],
      "name": "allowance",
      "outputs": [
        {
          "internalType": "uint256",
          "name": "",
          "type": "uint256"
        }
      ],
      "stateMutability": "view",
      "type": "function"
    },
    {
      "inputs": [
        {
          "internalType": "address",
          "name": "spender",
          "type": "address"
        },
        {
          "internalType": "uint256",
          "name": "value",
          "type": "uint256"
        }
      ],
      "name": "approve",
      "outputs": [
        {
          "internalType": "bool",
          "name": "",
          "type": "bool"
        }
      ],
      "stateMutability": "nonpayable",
      "type": "function"
    },
    {
      "inputs": [
        {
          "internalType": "address",
          "name": "account",
          "type": "address"
        }
      ],
      "name": "balanceOf",
      "outputs": [
        {
          "internalType": "uint256",
          "name": "",
          "type": "uint256"
        }
      ],
      "stateMutability": "view",
      "type": "function"
    },
    {
      "inputs": [
        {
          "internalType": "uint256",
          "name": "value",
          "type": "uint256"
        }
      ],
      "name": "burn",
      "outputs": [],
      "stateMutability": "nonpayable",
      "type": "function"
    },
    {
      "inputs": [
        {
          "internalType": "address",
          "name": "account",
          "type": "address"
        },
        {
          "internalType": "uint256",
          "name": "value",
          "type": "uint256"
        }
      ],
      "name": "burnFrom",
      "outputs": [],
      "stateMutability": "nonpayable",
      "type": "function"
    },
    {
      "inputs": [],
      "name": "decimals",
      "outputs": [
        {
          "internalType": "uint8",
          "name": "",
          "type": "uint8"
        }
      ],
      "stateMutability": "view",
      "type": "function"
    },
    {
      "inputs": [],
      "name": "eip712Domain",
      "outputs": [
        {
          "internalType": "bytes1",
          "name": "fields",
          "type": "bytes1"
        },
        {
          "internalType": "string",
          "name": "name",
          "type": "string"
        },
        {
          "internalType": "string",
          "name": "version",
          "type": "string"
        },
        {
          "internalType": "uint256",
          "name": "chainId",
          "type": "uint256"
        },
        {
          "internalType": "address",
          "name": "verifyingContract",
          "type": "address"
        },
        {
          "internalType": "bytes32",
          "name": "salt",
          "type": "bytes32"
        },
        {
          "internalType": "uint256[]",
          "name": "extensions",
          "type": "uint256[]"
        }
      ],
      "stateMutability": "view",
      "type": "function"
    },
    {
      "inputs": [
        {
          "internalType": "address",
          "name": "initialOwner",
          "type": "address"
        }
      ],
      "name": "initialize",
      "outputs": [],
      "stateMutability": "nonpayable",
      "type": "function"
    },
    {
      "inputs": [
        {
          "internalType": "address",
          "name": "to",
          "type": "address"
        },
        {
          "internalType": "uint256",
          "name": "amount",
          "type": "uint256"
        }
      ],
      "name": "mint",
      "outputs": [],
      "stateMutability": "nonpayable",
      "type": "function"
    },
    {
      "inputs": [],
      "name": "name",
      "outputs": [
        {
          "internalType": "string",
          "name": "",
          "type": "string"
        }
      ],
      "stateMutability": "view",
      "type": "function"
    },
    {
      "inputs": [
        {
          "internalType": "address",
          "name": "owner",
          "type": "address"
        }
      ],
      "name": "nonces",
      "outputs": [
        {
          "internalType": "uint256",
          "name": "",
          "type": "uint256"
        }
      ],
      "stateMutability": "view",
      "type": "function"
    },
    {
      "inputs": [],
      "name": "owner",
      "outputs": [
        {
          "internalType": "address",
          "name": "",
          "type": "address"
        }
      ],
      "stateMutability": "view",
      "type": "function"
    },
    {
      "inputs": [],
      "name": "pause",
      "outputs": [],
      "stateMutability": "nonpayable",
      "type": "function"
    },
    {
      "inputs": [],
      "name": "paused",
      "outputs": [
        {
          "internalType": "bool",
          "name": "",
          "type": "bool"
        }
      ],
      "stateMutability": "view",
      "type": "function"
    },
    {
      "inputs": [
        {
          "internalType": "address",
          "name": "owner",
          "type": "address"
        },
        {
          "internalType": "address",
          "name": "spender",
          "type": "address"
        },
        {
          "internalType": "uint256",
          "name": "value",
          "type": "uint256"
        },
        {
          "internalType": "uint256",
          "name": "deadline",
          "type": "uint256"
        },
        {
          "internalType": "uint8",
          "name": "v",
          "type": "uint8"
        },
        {
          "internalType": "bytes32",
          "name": "r",
          "type": "bytes32"
        },
        {
          "internalType": "bytes32",
          "name": "s",
          "type": "bytes32"
        }
      ],
      "name": "permit",
      "outputs": [],
      "stateMutability": "nonpayable",
      "type": "function"
    },
    {
      "inputs": [],
      "name": "renounceOwnership",
      "outputs": [],
      "stateMutability": "nonpayable",
      "type": "function"
    },
    {
      "inputs": [],
      "name": "symbol",
      "outputs": [
        {
          "internalType": "string",
          "name": "",
          "type": "string"
        }
      ],
      "stateMutability": "view",
      "type": "function"
    },
    {
      "inputs": [],
      "name": "totalSupply",
      "outputs": [
        {
          "internalType": "uint256",
          "name": "",
          "type": "uint256"
        }
      ],
      "stateMutability": "view",
      "type": "function"
    },
    {
      "inputs": [
        {
          "internalType": "address",
          "name": "to",
          "type": "address"
        },
        {
          "internalType": "uint256",
          "name": "value",
          "type": "uint256"
        }
      ],
      "name": "transfer",
      "outputs": [
        {
          "internalType": "bool",
          "name": "",
          "type": "bool"
        }
      ],
      "stateMutability": "nonpayable",
      "type": "function"
    },
    {
      "inputs": [
        {
          "internalType": "address",
          "name": "from",
          "type": "address"
        },
        {
          "internalType": "address",
          "name": "to",
          "type": "address"
        },
        {
          "internalType": "uint256",
          "name": "value",
          "type": "uint256"
        }
      ],
      "name": "transferFrom",
      "outputs": [
        {
          "internalType": "bool",
          "name": "",
          "type": "bool"
        }
      ],
      "stateMutability": "nonpayable",
      "type": "function"
    },
    {
      "inputs": [
        {
          "internalType": "address",
          "name": "newOwner",
          "type": "address"
        }
      ],
      "name": "transferOwnership",
      "outputs": [],
      "stateMutability": "nonpayable",
      "type": "function"
    },
    {
      "inputs": [],
      "name": "unpause",
      "outputs": [],
      "stateMutability": "nonpayable",
      "type": "function"
    }
  ],
  "bytecode": "0x6080604052348015600f57600080fd5b506016601a565b60ca565b7ff0c57e16840df040f15088dc2f81fe391c3923bec73e23a9662efc9c229c6a00805468010000000000000000900460ff161560695760405163f92ee8a960e01b815260040160405180910390fd5b80546001600160401b039081161460c75780546001600160401b0319166001600160401b0390811782556040519081527fc7f505b2f371ae2175ee4913f4499e1f2633a7b5936321eed1cdaeb6115181d29060200160405180910390a15b50565b61197b806100d96000396000f3fe608060405234801561001057600080fd5b506004361061014d5760003560e01c8063715018a6116100c357806395d89b411161007c57806395d89b41146102d4578063a9059cbb146102dc578063c4d66de8146102ef578063d505accf14610302578063dd62ed3e14610315578063f2fde38b1461032857600080fd5b8063715018a61461024957806379cc6790146102515780637ecebe00146102645780638456cb591461027757806384b0196e1461027f5780638da5cb5b1461029a57600080fd5b80633644e515116101155780633644e515146101e65780633f4ba83a146101ee57806340c10f19146101f857806342966c681461020b5780635c975abb1461021e57806370a082311461023657600080fd5b806306fdde0314610152578063095ea7b31461017057806318160ddd1461019357806323b872dd146101c4578063313ce567146101d7575b600080fd5b61015a61033b565b6040516101679190611434565b60405180910390f35b61018361017e36600461146a565b6103e4565b6040519015158152602001610167565b7f52c63247e1f47db19d5ce0460030c497f067ca4cebf71ba98eeadabe20bace02545b604051908152602001610167565b6101836101d2366004611494565b6103fe565b60405160128152602001610167565b6101b6610422565b6101f6610431565b005b6101f661020636600461146a565b610443565b6101f66102193660046114d1565b610459565b6000805160206119268339815191525460ff16610183565b6101b66102443660046114ea565b610466565b6101f6610499565b6101f661025f36600461146a565b6104ab565b6101b66102723660046114ea565b6104c0565b6101f66104cb565b6102876104db565b6040516101679796959493929190611505565b7f9016d09d72d40fdae2fd8ceac6b6234c7706214fd39c1cd1e609a0528c199300546040516001600160a01b039091168152602001610167565b61015a61058c565b6101836102ea36600461146a565b6105cb565b6101f66102fd3660046114ea565b6105d9565b6101f661031036600461159d565b610799565b6101b6610323366004611610565b6108f2565b6101f66103363660046114ea565b61093c565b606060006000805160206118e68339815191525b905080600301805461036090611643565b80601f016020809104026020016040519081016040528092919081815260200182805461038c90611643565b80156103d95780601f106103ae576101008083540402835291602001916103d9565b820191906000526020600020905b8154815290600101906020018083116103bc57829003601f168201915b505050505091505090565b6000336103f2818585610977565b60019150505b92915050565b60003361040c858285610989565b6104178585856109f0565b506001949350505050565b600061042c610a4f565b905090565b610439610a59565b610441610ab4565b565b61044b610a59565b6104558282610b14565b5050565b6104633382610b4a565b50565b6000806000805160206118e68339815191525b6001600160a01b0390931660009081526020939093525050604090205490565b6104a1610a59565b6104416000610b80565b6104b6823383610989565b6104558282610b4a565b60006103f882610bf1565b6104d3610a59565b610441610c1a565b60006060808280808381600080516020611906833981519152805490915015801561050857506001810154155b6105515760405162461bcd60e51b81526020600482015260156024820152741152540dcc4c8e88155b9a5b9a5d1a585b1a5e9959605a1b60448201526064015b60405180910390fd5b610559610c63565b610561610ca2565b60408051600080825260208201909252600f60f81b9c939b5091995046985030975095509350915050565b7f52c63247e1f47db19d5ce0460030c497f067ca4cebf71ba98eeadabe20bace0480546060916000805160206118e68339815191529161036090611643565b6000336103f28185856109f0565b7ff0c57e16840df040f15088dc2f81fe391c3923bec73e23a9662efc9c229c6a008054600160401b810460ff16159067ffffffffffffffff1660008115801561061f5750825b905060008267ffffffffffffffff16600114801561063c5750303b155b90508115801561064a575080155b156106685760405163f92ee8a960e01b815260040160405180910390fd5b845467ffffffffffffffff19166001178555831561069257845460ff60401b1916600160401b1785555b6106de6040518060400160405280600f81526020016e2134b63631b432b0b8102a37b5b2b760891b815250604051806040016040528060038152602001621090d560ea1b815250610cba565b6106e6610ccc565b6106ee610cd4565b6106f786610ce4565b6107276040518060400160405280600f81526020016e2134b63631b432b0b8102a37b5b2b760891b815250610cf5565b61074b336107376012600a611790565b6107469064e8d4a5100061179f565b610b14565b831561079157845460ff60401b19168555604051600181527fc7f505b2f371ae2175ee4913f4499e1f2633a7b5936321eed1cdaeb6115181d29060200160405180910390a15b505050505050565b834211156107bd5760405163313c898160e11b815260048101859052602401610548565b60007f6e71edae12b1b97f4d1f60370fef10105fa2faae0126114a169c64845d6126c98888886108298c6001600160a01b031660009081527f5ab42ced628888259c08ac98db1eb0cf702fc1501344311d8b100cd1bfe4bb006020526040902080546001810190915590565b6040805160208101969096526001600160a01b0394851690860152929091166060840152608083015260a082015260c0810186905260e001604051602081830303815290604052805190602001209050600061088482610d20565b9050600061089482878787610d4d565b9050896001600160a01b0316816001600160a01b0316146108db576040516325c0072360e11b81526001600160a01b0380831660048301528b166024820152604401610548565b6108e68a8a8a610977565b50505050505050505050565b6001600160a01b0391821660009081527f52c63247e1f47db19d5ce0460030c497f067ca4cebf71ba98eeadabe20bace016020908152604080832093909416825291909152205490565b610944610a59565b6001600160a01b03811661096e57604051631e4fbdf760e01b815260006004820152602401610548565b61046381610b80565b6109848383836001610d7b565b505050565b600061099584846108f2565b90506000198110156109ea57818110156109db57604051637dc7a0d960e11b81526001600160a01b03841660048201526024810182905260448101839052606401610548565b6109ea84848484036000610d7b565b50505050565b6001600160a01b038316610a1a57604051634b637e8f60e11b815260006004820152602401610548565b6001600160a01b038216610a445760405163ec442f0560e01b815260006004820152602401610548565b610984838383610e63565b600061042c610e6e565b33610a8b7f9016d09d72d40fdae2fd8ceac6b6234c7706214fd39c1cd1e609a0528c199300546001600160a01b031690565b6001600160a01b0316146104415760405163118cdaa760e01b8152336004820152602401610548565b610abc610ee2565b600080516020611926833981519152805460ff191681557f5db9ee0a495bf2e6ff9c91a7834c1ba4fdd244a5e8aa4e537bd38aeae4b073aa335b6040516001600160a01b03909116815260200160405180910390a150565b6001600160a01b038216610b3e5760405163ec442f0560e01b815260006004820152602401610548565b61045560008383610e63565b6001600160a01b038216610b7457604051634b637e8f60e11b815260006004820152602401610548565b61045582600083610e63565b7f9016d09d72d40fdae2fd8ceac6b6234c7706214fd39c1cd1e609a0528c19930080546001600160a01b031981166001600160a01b03848116918217845560405192169182907f8be0079c531659141344cd1fd0a4f28419497f9722a3daafe3b4186f6b6457e090600090a3505050565b6000807f5ab42ced628888259c08ac98db1eb0cf702fc1501344311d8b100cd1bfe4bb00610479565b610c22610f12565b600080516020611926833981519152805460ff191660011781557f62e78cea01bee320cd4e420270b5ea74000d11b0c9f74754ebdbfc544b05a25833610af6565b7fa16a46d94261c7517cc8ff89f61c0ce93598e3c849801011dee649a6a557d10280546060916000805160206119068339815191529161036090611643565b6060600060008051602061190683398151915261034f565b610cc2610f43565b6104558282610f8c565b610441610f43565b610cdc610f43565b610441610fdd565b610cec610f43565b61046381610ffe565b610cfd610f43565b61046381604051806040016040528060018152602001603160f81b815250611006565b60006103f8610d2d610a4f565b8360405161190160f01b8152600281019290925260228201526042902090565b600080600080610d5f88888888611067565b925092509250610d6f8282611136565b50909695505050505050565b6000805160206118e68339815191526001600160a01b038516610db45760405163e602df0560e01b815260006004820152602401610548565b6001600160a01b038416610dde57604051634a1406b160e11b815260006004820152602401610548565b6001600160a01b03808616600090815260018301602090815260408083209388168352929052208390558115610e5c57836001600160a01b0316856001600160a01b03167f8c5be1e5ebec7d5bd14f71427d1e84f3dd0314c0f7b2291e5b200ac8c7c3b92585604051610e5391815260200190565b60405180910390a35b5050505050565b6109848383836111ef565b60007f8b73c3c69bb8fe3d512ecc4cf759cc79239f7b179b0ffacaa9a75d522b39400f610e99611202565b610ea161126c565b60408051602081019490945283019190915260608201524660808201523060a082015260c00160405160208183030381529060405280519060200120905090565b6000805160206119268339815191525460ff1661044157604051638dfc202b60e01b815260040160405180910390fd5b6000805160206119268339815191525460ff16156104415760405163d93c066560e01b815260040160405180910390fd5b7ff0c57e16840df040f15088dc2f81fe391c3923bec73e23a9662efc9c229c6a0054600160401b900460ff1661044157604051631afcd79f60e31b815260040160405180910390fd5b610f94610f43565b6000805160206118e68339815191527f52c63247e1f47db19d5ce0460030c497f067ca4cebf71ba98eeadabe20bace03610fce84826117fd565b50600481016109ea83826117fd565b610fe5610f43565b600080516020611926833981519152805460ff19169055565b610944610f43565b61100e610f43565b6000805160206119068339815191527fa16a46d94261c7517cc8ff89f61c0ce93598e3c849801011dee649a6a557d10261104884826117fd565b506003810161105783826117fd565b5060008082556001909101555050565b600080807f7fffffffffffffffffffffffffffffff5d576e7357a4501ddfe92f46681b20a08411156110a2575060009150600390508261112c565b604080516000808252602082018084528a905260ff891692820192909252606081018790526080810186905260019060a0016020604051602081039080840390855afa1580156110f6573d6000803e3d6000fd5b5050604051601f1901519150506001600160a01b0381166111225750600092506001915082905061112c565b9250600091508190505b9450945094915050565b600082600381111561114a5761114a6118bc565b03611153575050565b6001826003811115611167576111676118bc565b036111855760405163f645eedf60e01b815260040160405180910390fd5b6002826003811115611199576111996118bc565b036111ba5760405163fce698f760e01b815260048101829052602401610548565b60038260038111156111ce576111ce6118bc565b03610455576040516335e2f38360e21b815260048101829052602401610548565b6111f7610f12565b6109848383836112b0565b60006000805160206119068339815191528161121c610c63565b80519091501561123457805160209091012092915050565b81548015611243579392505050565b7fc5d2460186f7233c927e7db2dcc703c0e500b653ca82273b7bfad8045d85a470935050505090565b600060008051602061190683398151915281611286610ca2565b80519091501561129e57805160209091012092915050565b60018201548015611243579392505050565b6000805160206118e68339815191526001600160a01b0384166112ec57818160020160008282546112e191906118d2565b9091555061135e9050565b6001600160a01b0384166000908152602082905260409020548281101561133f5760405163391434e360e21b81526001600160a01b03861660048201526024810182905260448101849052606401610548565b6001600160a01b03851660009081526020839052604090209083900390555b6001600160a01b03831661137c57600281018054839003905561139b565b6001600160a01b03831660009081526020829052604090208054830190555b826001600160a01b0316846001600160a01b03167fddf252ad1be2c89b69c2b068fc378daa952ba7f163c4a11628f55a4df523b3ef846040516113e091815260200190565b60405180910390a350505050565b6000815180845260005b81811015611414576020818501810151868301820152016113f8565b506000602082860101526020601f19601f83011685010191505092915050565b60208152600061144760208301846113ee565b9392505050565b80356001600160a01b038116811461146557600080fd5b919050565b6000806040838503121561147d57600080fd5b6114868361144e565b946020939093013593505050565b6000806000606084860312156114a957600080fd5b6114b28461144e565b92506114c06020850161144e565b929592945050506040919091013590565b6000602082840312156114e357600080fd5b5035919050565b6000602082840312156114fc57600080fd5b6114478261144e565b60ff60f81b8816815260e06020820152600061152460e08301896113ee565b828103604084015261153681896113ee565b606084018890526001600160a01b038716608085015260a0840186905283810360c08501528451808252602080870193509091019060005b8181101561158c57835183526020938401939092019160010161156e565b50909b9a5050505050505050505050565b600080600080600080600060e0888a0312156115b857600080fd5b6115c18861144e565b96506115cf6020890161144e565b95506040880135945060608801359350608088013560ff811681146115f357600080fd5b9699959850939692959460a0840135945060c09093013592915050565b6000806040838503121561162357600080fd5b61162c8361144e565b915061163a6020840161144e565b90509250929050565b600181811c9082168061165757607f821691505b60208210810361167757634e487b7160e01b600052602260045260246000fd5b50919050565b634e487b7160e01b600052604160045260246000fd5b634e487b7160e01b600052601160045260246000fd5b6001815b60018411156116e4578085048111156116c8576116c8611693565b60018416156116d657908102905b60019390931c9280026116ad565b935093915050565b6000826116fb575060016103f8565b81611708575060006103f8565b816001811461171e576002811461172857611744565b60019150506103f8565b60ff84111561173957611739611693565b50506001821b6103f8565b5060208310610133831016604e8410600b8410161715611767575081810a6103f8565b61177460001984846116a9565b806000190482111561178857611788611693565b029392505050565b600061144760ff8416836116ec565b80820281158282048414176103f8576103f8611693565b601f82111561098457806000526020600020601f840160051c810160208510156117dd5750805b601f840160051c820191505b81811015610e5c57600081556001016117e9565b815167ffffffffffffffff8111156118175761181761167d565b61182b816118258454611643565b846117b6565b6020601f82116001811461185f57600083156118475750848201515b600019600385901b1c1916600184901b178455610e5c565b600084815260208120601f198516915b8281101561188f578785015182556020948501946001909201910161186f565b50848210156118ad5786840151600019600387901b60f8161c191681555b50505050600190811b01905550565b634e487b7160e01b600052602160045260246000fd5b808201808211156103f8576103f861169356fe52c63247e1f47db19d5ce0460030c497f067ca4cebf71ba98eeadabe20bace00a16a46d94261c7517cc8ff89f61c0ce93598e3c849801011dee649a6a557d100cd5ed15c6e187e77e9aee88184c21f4f2182ab5827cb3b7e07fbedcd63f03300a2646970667358221220d2e35b9b60f4c661b81579be518a61dec3e2b4f7c2c79c99609aaf615549bed364736f6c634300081c0033",
  "linkReferences": {},
  "deployedLinkReferences": {}
}