{
  "_format": "hh-sol-artifact-1",
  "contractName": "BillcheapTether",
  "sourceName": "contracts/tokens/USDT.sol",
  "abi": [
    {
      "inputs": [],
      "stateMutability": "nonpayable",
      "type": "constructor"
    },
    {
      "inputs": [],
      "name": "ECDSAInvalidSignature",
      "type": "error"
    },
    {
      "inputs": [
        {
          "internalType": "uint256",
          "name": "length",
          "type": "uint256"
        }
      ],
      "name": "ECDSAInvalidSignatureLength",
      "type": "error"
    },
    {
      "inputs": [
        {
          "internalType": "bytes32",
          "name": "s",
          "type": "bytes32"
        }
      ],
      "name": "ECDSAInvalidSignatureS",
      "type": "error"
    },
    {
      "inputs": [
        {
          "internalType": "address",
          "name": "spender",
          "type": "address"
        },
        {
          "internalType": "uint256",
          "name": "allowance",
          "type": "uint256"
        },
        {
          "internalType": "uint256",
          "name": "needed",
          "type": "uint256"
        }
      ],
      "name": "ERC20InsufficientAllowance",
      "type": "error"
    },
    {
      "inputs": [
        {
          "internalType": "address",
          "name": "sender",
          "type": "address"
        },
        {
          "internalType": "uint256",
          "name": "balance",
          "type": "uint256"
        },
        {
          "internalType": "uint256",
          "name": "needed",
          "type": "uint256"
        }
      ],
      "name": "ERC20InsufficientBalance",
      "type": "error"
    },
    {
      "inputs": [
        {
          "internalType": "address",
          "name": "approver",
          "type": "address"
        }
      ],
      "name": "ERC20InvalidApprover",
      "type": "error"
    },
    {
      "inputs": [
        {
          "internalType": "address",
          "name": "receiver",
          "type": "address"
        }
      ],
      "name": "ERC20InvalidReceiver",
      "type": "error"
    },
    {
      "inputs": [
        {
          "internalType": "address",
          "name": "sender",
          "type": "address"
        }
      ],
      "name": "ERC20InvalidSender",
      "type": "error"
    },
    {
      "inputs": [
        {
          "internalType": "address",
          "name": "spender",
          "type": "address"
        }
      ],
      "name": "ERC20InvalidSpender",
      "type": "error"
    },
    {
      "inputs": [
        {
          "internalType": "uint256",
          "name": "deadline",
          "type": "uint256"
        }
      ],
      "name": "ERC2612ExpiredSignature",
      "type": "error"
    },
    {
      "inputs": [
        {
          "internalType": "address",
          "name": "signer",
          "type": "address"
        },
        {
          "internalType": "address",
          "name": "owner",
          "type": "address"
        }
      ],
      "name": "ERC2612InvalidSigner",
      "type": "error"
    },
    {
      "inputs": [],
      "name": "EnforcedPause",
      "type": "error"
    },
    {
      "inputs": [],
      "name": "ExpectedPause",
      "type": "error"
    },
    {
      "inputs": [
        {
          "internalType": "address",
          "name": "account",
          "type": "address"
        },
        {
          "internalType": "uint256",
          "name": "currentNonce",
          "type": "uint256"
        }
      ],
      "name": "InvalidAccountNonce",
      "type": "error"
    },
    {
      "inputs": [],
      "name": "InvalidInitialization",
      "type": "error"
    },
    {
      "inputs": [],
      "name": "NotInitializing",
      "type": "error"
    },
    {
      "inputs": [
        {
          "internalType": "address",
          "name": "owner",
          "type": "address"
        }
      ],
      "name": "OwnableInvalidOwner",
      "type": "error"
    },
    {
      "inputs": [
        {
          "internalType": "address",
          "name": "account",
          "type": "address"
        }
      ],
      "name": "OwnableUnauthorizedAccount",
      "type": "error"
    },
    {
      "anonymous": false,
      "inputs": [
        {
          "indexed": true,
          "internalType": "address",
          "name": "owner",
          "type": "address"
        },
        {
          "indexed": true,
          "internalType": "address",
          "name": "spender",
          "type": "address"
        },
        {
          "indexed": false,
          "internalType": "uint256",
          "name": "value",
          "type": "uint256"
        }
      ],
      "name": "Approval",
      "type": "event"
    },
    {
      "anonymous": false,
      "inputs": [],
      "name": "EIP712DomainChanged",
      "type": "event"
    },
    {
      "anonymous": false,
      "inputs": [
        {
          "indexed": false,
          "internalType": "uint64",
          "name": "version",
          "type": "uint64"
        }
      ],
      "name": "Initialized",
      "type": "event"
    },
    {
      "anonymous": false,
      "inputs": [
        {
          "indexed": true,
          "internalType": "address",
          "name": "previousOwner",
          "type": "address"
        },
        {
          "indexed": true,
          "internalType": "address",
          "name": "newOwner",
          "type": "address"
        }
      ],
      "name": "OwnershipTransferred",
      "type": "event"
    },
    {
      "anonymous": false,
      "inputs": [
        {
          "indexed": false,
          "internalType": "address",
          "name": "account",
          "type": "address"
        }
      ],
      "name": "Paused",
      "type": "event"
    },
    {
      "anonymous": false,
      "inputs": [
        {
          "indexed": true,
          "internalType": "address",
          "name": "from",
          "type": "address"
        },
        {
          "indexed": true,
          "internalType": "address",
          "name": "to",
          "type": "address"
        },
        {
          "indexed": false,
          "internalType": "uint256",
          "name": "value",
          "type": "uint256"
        }
      ],
      "name": "Transfer",
      "type": "event"
    },
    {
      "anonymous": false,
      "inputs": [
        {
          "indexed": false,
          "internalType": "address",
          "name": "account",
          "type": "address"
        }
      ],
      "name": "Unpaused",
      "type": "event"
    },
    {
      "inputs": [],
      "name": "DOMAIN_SEPARATOR",
      "outputs": [
        {
          "internalType": "bytes32",
          "name": "",
          "type": "bytes32"
        }
      ],
      "stateMutability": "view",
      "type": "function"
    },
    {
      "inputs": [
        {
          "internalType": "address",
          "name": "owner",
          "type": "address"
        },
        {
          "internalType": "address",
          "name": "spender",
          "type": "address"
        }
      ],
      "name": "allowance",
      "outputs": [
        {
          "internalType": "uint256",
          "name": "",
          "type": "uint256"
        }
      ],
      "stateMutability": "view",
      "type": "function"
    },
    {
      "inputs": [
        {
          "internalType": "address",
          "name": "spender",
          "type": "address"
        },
        {
          "internalType": "uint256",
          "name": "value",
          "type": "uint256"
        }
      ],
      "name": "approve",
      "outputs": [
        {
          "internalType": "bool",
          "name": "",
          "type": "bool"
        }
      ],
      "stateMutability": "nonpayable",
      "type": "function"
    },
    {
      "inputs": [
        {
          "internalType": "address",
          "name": "account",
          "type": "address"
        }
      ],
      "name": "balanceOf",
      "outputs": [
        {
          "internalType": "uint256",
          "name": "",
          "type": "uint256"
        }
      ],
      "stateMutability": "view",
      "type": "function"
    },
    {
      "inputs": [
        {
          "internalType": "uint256",
          "name": "value",
          "type": "uint256"
        }
      ],
      "name": "burn",
      "outputs": [],
      "stateMutability": "nonpayable",
      "type": "function"
    },
    {
      "inputs": [
        {
          "internalType": "address",
          "name": "account",
          "type": "address"
        },
        {
          "internalType": "uint256",
          "name": "value",
          "type": "uint256"
        }
      ],
      "name": "burnFrom",
      "outputs": [],
      "stateMutability": "nonpayable",
      "type": "function"
    },
    {
      "inputs": [],
      "name": "decimals",
      "outputs": [
        {
          "internalType": "uint8",
          "name": "",
          "type": "uint8"
        }
      ],
      "stateMutability": "view",
      "type": "function"
    },
    {
      "inputs": [],
      "name": "eip712Domain",
      "outputs": [
        {
          "internalType": "bytes1",
          "name": "fields",
          "type": "bytes1"
        },
        {
          "internalType": "string",
          "name": "name",
          "type": "string"
        },
        {
          "internalType": "string",
          "name": "version",
          "type": "string"
        },
        {
          "internalType": "uint256",
          "name": "chainId",
          "type": "uint256"
        },
        {
          "internalType": "address",
          "name": "verifyingContract",
          "type": "address"
        },
        {
          "internalType": "bytes32",
          "name": "salt",
          "type": "bytes32"
        },
        {
          "internalType": "uint256[]",
          "name": "extensions",
          "type": "uint256[]"
        }
      ],
      "stateMutability": "view",
      "type": "function"
    },
    {
      "inputs": [
        {
          "internalType": "address",
          "name": "initialOwner",
          "type": "address"
        }
      ],
      "name": "initialize",
      "outputs": [],
      "stateMutability": "nonpayable",
      "type": "function"
    },
    {
      "inputs": [
        {
          "internalType": "address",
          "name": "to",
          "type": "address"
        },
        {
          "internalType": "uint256",
          "name": "amount",
          "type": "uint256"
        }
      ],
      "name": "mint",
      "outputs": [],
      "stateMutability": "nonpayable",
      "type": "function"
    },
    {
      "inputs": [],
      "name": "name",
      "outputs": [
        {
          "internalType": "string",
          "name": "",
          "type": "string"
        }
      ],
      "stateMutability": "view",
      "type": "function"
    },
    {
      "inputs": [
        {
          "internalType": "address",
          "name": "owner",
          "type": "address"
        }
      ],
      "name": "nonces",
      "outputs": [
        {
          "internalType": "uint256",
          "name": "",
          "type": "uint256"
        }
      ],
      "stateMutability": "view",
      "type": "function"
    },
    {
      "inputs": [],
      "name": "owner",
      "outputs": [
        {
          "internalType": "address",
          "name": "",
          "type": "address"
        }
      ],
      "stateMutability": "view",
      "type": "function"
    },
    {
      "inputs": [],
      "name": "pause",
      "outputs": [],
      "stateMutability": "nonpayable",
      "type": "function"
    },
    {
      "inputs": [],
      "name": "paused",
      "outputs": [
        {
          "internalType": "bool",
          "name": "",
          "type": "bool"
        }
      ],
      "stateMutability": "view",
      "type": "function"
    },
    {
      "inputs": [
        {
          "internalType": "address",
          "name": "owner",
          "type": "address"
        },
        {
          "internalType": "address",
          "name": "spender",
          "type": "address"
        },
        {
          "internalType": "uint256",
          "name": "value",
          "type": "uint256"
        },
        {
          "internalType": "uint256",
          "name": "deadline",
          "type": "uint256"
        },
        {
          "internalType": "uint8",
          "name": "v",
          "type": "uint8"
        },
        {
          "internalType": "bytes32",
          "name": "r",
          "type": "bytes32"
        },
        {
          "internalType": "bytes32",
          "name": "s",
          "type": "bytes32"
        }
      ],
      "name": "permit",
      "outputs": [],
      "stateMutability": "nonpayable",
      "type": "function"
    },
    {
      "inputs": [],
      "name": "renounceOwnership",
      "outputs": [],
      "stateMutability": "nonpayable",
      "type": "function"
    },
    {
      "inputs": [],
      "name": "symbol",
      "outputs": [
        {
          "internalType": "string",
          "name": "",
          "type": "string"
        }
      ],
      "stateMutability": "view",
      "type": "function"
    },
    {
      "inputs": [],
      "name": "totalSupply",
      "outputs": [
        {
          "internalType": "uint256",
          "name": "",
          "type": "uint256"
        }
      ],
      "stateMutability": "view",
      "type": "function"
    },
    {
      "inputs": [
        {
          "internalType": "address",
          "name": "to",
          "type": "address"
        },
        {
          "internalType": "uint256",
          "name": "value",
          "type": "uint256"
        }
      ],
      "name": "transfer",
      "outputs": [
        {
          "internalType": "bool",
          "name": "",
          "type": "bool"
        }
      ],
      "stateMutability": "nonpayable",
      "type": "function"
    },
    {
      "inputs": [
        {
          "internalType": "address",
          "name": "from",
          "type": "address"
        },
        {
          "internalType": "address",
          "name": "to",
          "type": "address"
        },
        {
          "internalType": "uint256",
          "name": "value",
          "type": "uint256"
        }
      ],
      "name": "transferFrom",
      "outputs": [
        {
          "internalType": "bool",
          "name": "",
          "type": "bool"
        }
      ],
      "stateMutability": "nonpayable",
      "type": "function"
    },
    {
      "inputs": [
        {
          "internalType": "address",
          "name": "newOwner",
          "type": "address"
        }
      ],
      "name": "transferOwnership",
      "outputs": [],
      "stateMutability": "nonpayable",
      "type": "function"
    },
    {
      "inputs": [],
      "name": "unpause",
      "outputs": [],
      "stateMutability": "nonpayable",
      "type": "function"
    }
  ],
  "bytecode": "0x6080604052348015600f57600080fd5b506016601a565b60ca565b7ff0c57e16840df040f15088dc2f81fe391c3923bec73e23a9662efc9c229c6a00805468010000000000000000900460ff161560695760405163f92ee8a960e01b815260040160405180910390fd5b80546001600160401b039081161460c75780546001600160401b0319166001600160401b0390811782556040519081527fc7f505b2f371ae2175ee4913f4499e1f2633a7b5936321eed1cdaeb6115181d29060200160405180910390a15b50565b61197f806100d96000396000f3fe608060405234801561001057600080fd5b506004361061014d5760003560e01c8063715018a6116100c357806395d89b411161007c57806395d89b41146102d4578063a9059cbb146102dc578063c4d66de8146102ef578063d505accf14610302578063dd62ed3e14610315578063f2fde38b1461032857600080fd5b8063715018a61461024957806379cc6790146102515780637ecebe00146102645780638456cb591461027757806384b0196e1461027f5780638da5cb5b1461029a57600080fd5b80633644e515116101155780633644e515146101e65780633f4ba83a146101ee57806340c10f19146101f857806342966c681461020b5780635c975abb1461021e57806370a082311461023657600080fd5b806306fdde0314610152578063095ea7b31461017057806318160ddd1461019357806323b872dd146101c4578063313ce567146101d7575b600080fd5b61015a61033b565b6040516101679190611438565b60405180910390f35b61018361017e36600461146e565b6103e4565b6040519015158152602001610167565b7f52c63247e1f47db19d5ce0460030c497f067ca4cebf71ba98eeadabe20bace02545b604051908152602001610167565b6101836101d2366004611498565b6103fe565b60405160128152602001610167565b6101b6610422565b6101f6610431565b005b6101f661020636600461146e565b610443565b6101f66102193660046114d5565b610459565b60008051602061192a8339815191525460ff16610183565b6101b66102443660046114ee565b610466565b6101f6610499565b6101f661025f36600461146e565b6104ab565b6101b66102723660046114ee565b6104c0565b6101f66104cb565b6102876104db565b6040516101679796959493929190611509565b7f9016d09d72d40fdae2fd8ceac6b6234c7706214fd39c1cd1e609a0528c199300546040516001600160a01b039091168152602001610167565b61015a61058c565b6101836102ea36600461146e565b6105cb565b6101f66102fd3660046114ee565b6105d9565b6101f66103103660046115a1565b61079d565b6101b6610323366004611614565b6108f6565b6101f66103363660046114ee565b610940565b606060006000805160206118ea8339815191525b905080600301805461036090611647565b80601f016020809104026020016040519081016040528092919081815260200182805461038c90611647565b80156103d95780601f106103ae576101008083540402835291602001916103d9565b820191906000526020600020905b8154815290600101906020018083116103bc57829003601f168201915b505050505091505090565b6000336103f281858561097b565b60019150505b92915050565b60003361040c85828561098d565b6104178585856109f4565b506001949350505050565b600061042c610a53565b905090565b610439610a5d565b610441610ab8565b565b61044b610a5d565b6104558282610b18565b5050565b6104633382610b4e565b50565b6000806000805160206118ea8339815191525b6001600160a01b0390931660009081526020939093525050604090205490565b6104a1610a5d565b6104416000610b84565b6104b682338361098d565b6104558282610b4e565b60006103f882610bf5565b6104d3610a5d565b610441610c1e565b6000606080828080838160008051602061190a833981519152805490915015801561050857506001810154155b6105515760405162461bcd60e51b81526020600482015260156024820152741152540dcc4c8e88155b9a5b9a5d1a585b1a5e9959605a1b60448201526064015b60405180910390fd5b610559610c67565b610561610ca6565b60408051600080825260208201909252600f60f81b9c939b5091995046985030975095509350915050565b7f52c63247e1f47db19d5ce0460030c497f067ca4cebf71ba98eeadabe20bace0480546060916000805160206118ea8339815191529161036090611647565b6000336103f28185856109f4565b7ff0c57e16840df040f15088dc2f81fe391c3923bec73e23a9662efc9c229c6a008054600160401b810460ff16159067ffffffffffffffff1660008115801561061f5750825b905060008267ffffffffffffffff16600114801561063c5750303b155b90508115801561064a575080155b156106685760405163f92ee8a960e01b815260040160405180910390fd5b845467ffffffffffffffff19166001178555831561069257845460ff60401b1916600160401b1785555b6106e16040518060400160405280601081526020016f2134b63631b432b0b8102a32ba3432b960811b81525060405180604001604052806005815260200164109554d11560da1b815250610cbe565b6106e9610cd0565b6106f1610cd8565b6106fa86610ce8565b61072b6040518060400160405280601081526020016f2134b63631b432b0b8102a32ba3432b960811b815250610cf9565b61074f3361073b6012600a611794565b61074a9064e8d4a510006117a3565b610b18565b831561079557845460ff60401b19168555604051600181527fc7f505b2f371ae2175ee4913f4499e1f2633a7b5936321eed1cdaeb6115181d29060200160405180910390a15b505050505050565b834211156107c15760405163313c898160e11b815260048101859052602401610548565b60007f6e71edae12b1b97f4d1f60370fef10105fa2faae0126114a169c64845d6126c988888861082d8c6001600160a01b031660009081527f5ab42ced628888259c08ac98db1eb0cf702fc1501344311d8b100cd1bfe4bb006020526040902080546001810190915590565b6040805160208101969096526001600160a01b0394851690860152929091166060840152608083015260a082015260c0810186905260e001604051602081830303815290604052805190602001209050600061088882610d24565b9050600061089882878787610d51565b9050896001600160a01b0316816001600160a01b0316146108df576040516325c0072360e11b81526001600160a01b0380831660048301528b166024820152604401610548565b6108ea8a8a8a61097b565b50505050505050505050565b6001600160a01b0391821660009081527f52c63247e1f47db19d5ce0460030c497f067ca4cebf71ba98eeadabe20bace016020908152604080832093909416825291909152205490565b610948610a5d565b6001600160a01b03811661097257604051631e4fbdf760e01b815260006004820152602401610548565b61046381610b84565b6109888383836001610d7f565b505050565b600061099984846108f6565b90506000198110156109ee57818110156109df57604051637dc7a0d960e11b81526001600160a01b03841660048201526024810182905260448101839052606401610548565b6109ee84848484036000610d7f565b50505050565b6001600160a01b038316610a1e57604051634b637e8f60e11b815260006004820152602401610548565b6001600160a01b038216610a485760405163ec442f0560e01b815260006004820152602401610548565b610988838383610e67565b600061042c610e72565b33610a8f7f9016d09d72d40fdae2fd8ceac6b6234c7706214fd39c1cd1e609a0528c199300546001600160a01b031690565b6001600160a01b0316146104415760405163118cdaa760e01b8152336004820152602401610548565b610ac0610ee6565b60008051602061192a833981519152805460ff191681557f5db9ee0a495bf2e6ff9c91a7834c1ba4fdd244a5e8aa4e537bd38aeae4b073aa335b6040516001600160a01b03909116815260200160405180910390a150565b6001600160a01b038216610b425760405163ec442f0560e01b815260006004820152602401610548565b61045560008383610e67565b6001600160a01b038216610b7857604051634b637e8f60e11b815260006004820152602401610548565b61045582600083610e67565b7f9016d09d72d40fdae2fd8ceac6b6234c7706214fd39c1cd1e609a0528c19930080546001600160a01b031981166001600160a01b03848116918217845560405192169182907f8be0079c531659141344cd1fd0a4f28419497f9722a3daafe3b4186f6b6457e090600090a3505050565b6000807f5ab42ced628888259c08ac98db1eb0cf702fc1501344311d8b100cd1bfe4bb00610479565b610c26610f16565b60008051602061192a833981519152805460ff191660011781557f62e78cea01bee320cd4e420270b5ea74000d11b0c9f74754ebdbfc544b05a25833610afa565b7fa16a46d94261c7517cc8ff89f61c0ce93598e3c849801011dee649a6a557d102805460609160008051602061190a8339815191529161036090611647565b6060600060008051602061190a83398151915261034f565b610cc6610f47565b6104558282610f90565b610441610f47565b610ce0610f47565b610441610fe1565b610cf0610f47565b61046381611002565b610d01610f47565b61046381604051806040016040528060018152602001603160f81b81525061100a565b60006103f8610d31610a53565b8360405161190160f01b8152600281019290925260228201526042902090565b600080600080610d638888888861106b565b925092509250610d73828261113a565b50909695505050505050565b6000805160206118ea8339815191526001600160a01b038516610db85760405163e602df0560e01b815260006004820152602401610548565b6001600160a01b038416610de257604051634a1406b160e11b815260006004820152602401610548565b6001600160a01b03808616600090815260018301602090815260408083209388168352929052208390558115610e6057836001600160a01b0316856001600160a01b03167f8c5be1e5ebec7d5bd14f71427d1e84f3dd0314c0f7b2291e5b200ac8c7c3b92585604051610e5791815260200190565b60405180910390a35b5050505050565b6109888383836111f3565b60007f8b73c3c69bb8fe3d512ecc4cf759cc79239f7b179b0ffacaa9a75d522b39400f610e9d611206565b610ea5611270565b60408051602081019490945283019190915260608201524660808201523060a082015260c00160405160208183030381529060405280519060200120905090565b60008051602061192a8339815191525460ff1661044157604051638dfc202b60e01b815260040160405180910390fd5b60008051602061192a8339815191525460ff16156104415760405163d93c066560e01b815260040160405180910390fd5b7ff0c57e16840df040f15088dc2f81fe391c3923bec73e23a9662efc9c229c6a0054600160401b900460ff1661044157604051631afcd79f60e31b815260040160405180910390fd5b610f98610f47565b6000805160206118ea8339815191527f52c63247e1f47db19d5ce0460030c497f067ca4cebf71ba98eeadabe20bace03610fd28482611801565b50600481016109ee8382611801565b610fe9610f47565b60008051602061192a833981519152805460ff19169055565b610948610f47565b611012610f47565b60008051602061190a8339815191527fa16a46d94261c7517cc8ff89f61c0ce93598e3c849801011dee649a6a557d10261104c8482611801565b506003810161105b8382611801565b5060008082556001909101555050565b600080807f7fffffffffffffffffffffffffffffff5d576e7357a4501ddfe92f46681b20a08411156110a65750600091506003905082611130565b604080516000808252602082018084528a905260ff891692820192909252606081018790526080810186905260019060a0016020604051602081039080840390855afa1580156110fa573d6000803e3d6000fd5b5050604051601f1901519150506001600160a01b03811661112657506000925060019150829050611130565b9250600091508190505b9450945094915050565b600082600381111561114e5761114e6118c0565b03611157575050565b600182600381111561116b5761116b6118c0565b036111895760405163f645eedf60e01b815260040160405180910390fd5b600282600381111561119d5761119d6118c0565b036111be5760405163fce698f760e01b815260048101829052602401610548565b60038260038111156111d2576111d26118c0565b03610455576040516335e2f38360e21b815260048101829052602401610548565b6111fb610f16565b6109888383836112b4565b600060008051602061190a83398151915281611220610c67565b80519091501561123857805160209091012092915050565b81548015611247579392505050565b7fc5d2460186f7233c927e7db2dcc703c0e500b653ca82273b7bfad8045d85a470935050505090565b600060008051602061190a8339815191528161128a610ca6565b8051909150156112a257805160209091012092915050565b60018201548015611247579392505050565b6000805160206118ea8339815191526001600160a01b0384166112f057818160020160008282546112e591906118d6565b909155506113629050565b6001600160a01b038416600090815260208290526040902054828110156113435760405163391434e360e21b81526001600160a01b03861660048201526024810182905260448101849052606401610548565b6001600160a01b03851660009081526020839052604090209083900390555b6001600160a01b03831661138057600281018054839003905561139f565b6001600160a01b03831660009081526020829052604090208054830190555b826001600160a01b0316846001600160a01b03167fddf252ad1be2c89b69c2b068fc378daa952ba7f163c4a11628f55a4df523b3ef846040516113e491815260200190565b60405180910390a350505050565b6000815180845260005b81811015611418576020818501810151868301820152016113fc565b506000602082860101526020601f19601f83011685010191505092915050565b60208152600061144b60208301846113f2565b9392505050565b80356001600160a01b038116811461146957600080fd5b919050565b6000806040838503121561148157600080fd5b61148a83611452565b946020939093013593505050565b6000806000606084860312156114ad57600080fd5b6114b684611452565b92506114c460208501611452565b929592945050506040919091013590565b6000602082840312156114e757600080fd5b5035919050565b60006020828403121561150057600080fd5b61144b82611452565b60ff60f81b8816815260e06020820152600061152860e08301896113f2565b828103604084015261153a81896113f2565b606084018890526001600160a01b038716608085015260a0840186905283810360c08501528451808252602080870193509091019060005b81811015611590578351835260209384019390920191600101611572565b50909b9a5050505050505050505050565b600080600080600080600060e0888a0312156115bc57600080fd5b6115c588611452565b96506115d360208901611452565b95506040880135945060608801359350608088013560ff811681146115f757600080fd5b9699959850939692959460a0840135945060c09093013592915050565b6000806040838503121561162757600080fd5b61163083611452565b915061163e60208401611452565b90509250929050565b600181811c9082168061165b57607f821691505b60208210810361167b57634e487b7160e01b600052602260045260246000fd5b50919050565b634e487b7160e01b600052604160045260246000fd5b634e487b7160e01b600052601160045260246000fd5b6001815b60018411156116e8578085048111156116cc576116cc611697565b60018416156116da57908102905b60019390931c9280026116b1565b935093915050565b6000826116ff575060016103f8565b8161170c575060006103f8565b8160018114611722576002811461172c57611748565b60019150506103f8565b60ff84111561173d5761173d611697565b50506001821b6103f8565b5060208310610133831016604e8410600b841016171561176b575081810a6103f8565b61177860001984846116ad565b806000190482111561178c5761178c611697565b029392505050565b600061144b60ff8416836116f0565b80820281158282048414176103f8576103f8611697565b601f82111561098857806000526020600020601f840160051c810160208510156117e15750805b601f840160051c820191505b81811015610e6057600081556001016117ed565b815167ffffffffffffffff81111561181b5761181b611681565b61182f816118298454611647565b846117ba565b6020601f821160018114611863576000831561184b5750848201515b600019600385901b1c1916600184901b178455610e60565b600084815260208120601f198516915b828110156118935787850151825560209485019460019092019101611873565b50848210156118b15786840151600019600387901b60f8161c191681555b50505050600190811b01905550565b634e487b7160e01b600052602160045260246000fd5b808201808211156103f8576103f861169756fe52c63247e1f47db19d5ce0460030c497f067ca4cebf71ba98eeadabe20bace00a16a46d94261c7517cc8ff89f61c0ce93598e3c849801011dee649a6a557d100cd5ed15c6e187e77e9aee88184c21f4f2182ab5827cb3b7e07fbedcd63f03300a264697066735822122018645ecab140a9404da593da530382fef42a0ae452d4a62171b5c85bedeab0ef64736f6c634300081c0033",
  "linkReferences": {},
  "deployedLinkReferences": {}
}