{
  "contracts/Gateway.sol": {
    "Gateway": {
      "abi": [
        {
          "inputs": [],
          "stateMutability": "nonpayable",
          "type": "constructor"
        },
        {
          "inputs": [],
          "name": "AccessControlBadConfirmation",
          "type": "error"
        },
        {
          "inputs": [
            {
              "internalType": "address",
              "name": "account",
              "type": "address"
            },
            {
              "internalType": "bytes32",
              "name": "neededRole",
              "type": "bytes32"
            }
          ],
          "name": "AccessControlUnauthorizedAccount",
          "type": "error"
        },
        {
          "inputs": [],
          "name": "InvalidInitialization",
          "type": "error"
        },
        {
          "inputs": [],
          "name": "NotInitializing",
          "type": "error"
        },
        {
          "inputs": [],
          "name": "ReentrancyGuardReentrantCall",
          "type": "error"
        },
        {
          "anonymous": false,
          "inputs": [
            {
              "indexed": true,
              "internalType": "address",
              "name": "from",
              "type": "address"
            },
            {
              "indexed": true,
              "internalType": "uint256",
              "name": "id",
              "type": "uint256"
            },
            {
              "indexed": false,
              "internalType": "bytes",
              "name": "externalTxId",
              "type": "bytes"
            },
            {
              "indexed": false,
              "internalType": "bytes",
              "name": "billId",
              "type": "bytes"
            },
            {
              "indexed": false,
              "internalType": "uint256",
              "name": "timestamp",
              "type": "uint256"
            }
          ],
          "name": "BillProcessed",
          "type": "event"
        },
        {
          "anonymous": false,
          "inputs": [
            {
              "indexed": false,
              "internalType": "uint64",
              "name": "version",
              "type": "uint64"
            }
          ],
          "name": "Initialized",
          "type": "event"
        },
        {
          "anonymous": false,
          "inputs": [
            {
              "indexed": true,
              "internalType": "bytes32",
              "name": "role",
              "type": "bytes32"
            },
            {
              "indexed": true,
              "internalType": "bytes32",
              "name": "previousAdminRole",
              "type": "bytes32"
            },
            {
              "indexed": true,
              "internalType": "bytes32",
              "name": "newAdminRole",
              "type": "bytes32"
            }
          ],
          "name": "RoleAdminChanged",
          "type": "event"
        },
        {
          "anonymous": false,
          "inputs": [
            {
              "indexed": true,
              "internalType": "bytes32",
              "name": "role",
              "type": "bytes32"
            },
            {
              "indexed": true,
              "internalType": "address",
              "name": "account",
              "type": "address"
            },
            {
              "indexed": true,
              "internalType": "address",
              "name": "sender",
              "type": "address"
            }
          ],
          "name": "RoleGranted",
          "type": "event"
        },
        {
          "anonymous": false,
          "inputs": [
            {
              "indexed": true,
              "internalType": "bytes32",
              "name": "role",
              "type": "bytes32"
            },
            {
              "indexed": true,
              "internalType": "address",
              "name": "account",
              "type": "address"
            },
            {
              "indexed": true,
              "internalType": "address",
              "name": "sender",
              "type": "address"
            }
          ],
          "name": "RoleRevoked",
          "type": "event"
        },
        {
          "anonymous": false,
          "inputs": [
            {
              "indexed": true,
              "internalType": "address",
              "name": "tokenAddress",
              "type": "address"
            }
          ],
          "name": "TokenDelisted",
          "type": "event"
        },
        {
          "anonymous": false,
          "inputs": [
            {
              "indexed": true,
              "internalType": "address",
              "name": "tokenAddress",
              "type": "address"
            }
          ],
          "name": "TokenEnlisted",
          "type": "event"
        },
        {
          "inputs": [],
          "name": "DEFAULT_ADMIN_ROLE",
          "outputs": [
            {
              "internalType": "bytes32",
              "name": "",
              "type": "bytes32"
            }
          ],
          "stateMutability": "view",
          "type": "function"
        },
        {
          "inputs": [],
          "name": "ERROR_EXPIRED_RESOURCE",
          "outputs": [
            {
              "internalType": "string",
              "name": "",
              "type": "string"
            }
          ],
          "stateMutability": "view",
          "type": "function"
        },
        {
          "inputs": [],
          "name": "ERROR_INVALID_PRICE",
          "outputs": [
            {
              "internalType": "string",
              "name": "",
              "type": "string"
            }
          ],
          "stateMutability": "view",
          "type": "function"
        },
        {
          "inputs": [],
          "name": "ERROR_NOT_FOUND",
          "outputs": [
            {
              "internalType": "string",
              "name": "",
              "type": "string"
            }
          ],
          "stateMutability": "view",
          "type": "function"
        },
        {
          "inputs": [],
          "name": "ERROR_PROCESS_FAILED",
          "outputs": [
            {
              "internalType": "string",
              "name": "",
              "type": "string"
            }
          ],
          "stateMutability": "view",
          "type": "function"
        },
        {
          "inputs": [],
          "name": "ERROR_UNAUTHORIZED_ACCESS",
          "outputs": [
            {
              "internalType": "string",
              "name": "",
              "type": "string"
            }
          ],
          "stateMutability": "view",
          "type": "function"
        },
        {
          "inputs": [],
          "name": "MODERATOR_ROLE",
          "outputs": [
            {
              "internalType": "bytes32",
              "name": "",
              "type": "bytes32"
            }
          ],
          "stateMutability": "view",
          "type": "function"
        },
        {
          "inputs": [],
          "name": "billCount",
          "outputs": [
            {
              "internalType": "uint256",
              "name": "",
              "type": "uint256"
            }
          ],
          "stateMutability": "view",
          "type": "function"
        },
        {
          "inputs": [
            {
              "internalType": "bytes32",
              "name": "role",
              "type": "bytes32"
            }
          ],
          "name": "getRoleAdmin",
          "outputs": [
            {
              "internalType": "bytes32",
              "name": "",
              "type": "bytes32"
            }
          ],
          "stateMutability": "view",
          "type": "function"
        },
        {
          "inputs": [
            {
              "internalType": "bytes32",
              "name": "role",
              "type": "bytes32"
            },
            {
              "internalType": "address",
              "name": "account",
              "type": "address"
            }
          ],
          "name": "grantRole",
          "outputs": [],
          "stateMutability": "nonpayable",
          "type": "function"
        },
        {
          "inputs": [
            {
              "internalType": "bytes32",
              "name": "role",
              "type": "bytes32"
            },
            {
              "internalType": "address",
              "name": "account",
              "type": "address"
            }
          ],
          "name": "hasRole",
          "outputs": [
            {
              "internalType": "bool",
              "name": "",
              "type": "bool"
            }
          ],
          "stateMutability": "view",
          "type": "function"
        },
        {
          "inputs": [
            {
              "internalType": "address",
              "name": "_admin",
              "type": "address"
            }
          ],
          "name": "init_base_app",
          "outputs": [],
          "stateMutability": "nonpayable",
          "type": "function"
        },
        {
          "inputs": [
            {
              "internalType": "address",
              "name": "admin",
              "type": "address"
            }
          ],
          "name": "init_gateway",
          "outputs": [],
          "stateMutability": "nonpayable",
          "type": "function"
        },
        {
          "inputs": [
            {
              "internalType": "bytes32",
              "name": "role",
              "type": "bytes32"
            },
            {
              "internalType": "address",
              "name": "callerConfirmation",
              "type": "address"
            }
          ],
          "name": "renounceRole",
          "outputs": [],
          "stateMutability": "nonpayable",
          "type": "function"
        },
        {
          "inputs": [
            {
              "internalType": "bytes32",
              "name": "role",
              "type": "bytes32"
            },
            {
              "internalType": "address",
              "name": "account",
              "type": "address"
            }
          ],
          "name": "revokeRole",
          "outputs": [],
          "stateMutability": "nonpayable",
          "type": "function"
        },
        {
          "inputs": [
            {
              "internalType": "bytes4",
              "name": "interfaceId",
              "type": "bytes4"
            }
          ],
          "name": "supportsInterface",
          "outputs": [
            {
              "internalType": "bool",
              "name": "",
              "type": "bool"
            }
          ],
          "stateMutability": "view",
          "type": "function"
        },
        {
          "inputs": [],
          "name": "txCount",
          "outputs": [
            {
              "internalType": "uint256",
              "name": "",
              "type": "uint256"
            }
          ],
          "stateMutability": "view",
          "type": "function"
        }
      ],
      "evm": {
        "bytecode": {
          "linkReferences": {},
          "object": "6080604052348015600f57600080fd5b506016601a565b60ca565b7ff0c57e16840df040f15088dc2f81fe391c3923bec73e23a9662efc9c229c6a00805468010000000000000000900460ff161560695760405163f92ee8a960e01b815260040160405180910390fd5b80546001600160401b039081161460c75780546001600160401b0319166001600160401b0390811782556040519081527fc7f505b2f371ae2175ee4913f4499e1f2633a7b5936321eed1cdaeb6115181d29060200160405180910390a15b50565b610868806100d96000396000f3fe608060405234801561001057600080fd5b506004361061010b5760003560e01c80635c107264116100a25780638fdeb4a6116100715780638fdeb4a61461025a57806391d148541461026d578063a217fddf14610280578063ad4fb5cd14610288578063d547741f146102a857600080fd5b80635c107264146101e0578063797669c914610200578063846d9c1b146102275780638a2b34b21461023a57600080fd5b8063362c3ab8116100de578063362c3ab81461019b57806336568abe146101bb5780633c540687146101ce57806341dc3412146101d757600080fd5b806301ffc9a7146101105780631ceae9c714610138578063248a9ca3146101655780632f2ff15d14610186575b600080fd5b61012361011e366004610717565b6102bb565b60405190151581526020015b60405180910390f35b610158604051806040016040528060018152602001600d60fa1b81525081565b60405161012f9190610748565b610178610173366004610796565b6102f2565b60405190815260200161012f565b6101996101943660046107cb565b610314565b005b610158604051806040016040528060018152602001601960f91b81525081565b6101996101c93660046107cb565b610336565b61017860005481565b61017860015481565b610158604051806040016040528060018152602001603360f81b81525081565b6101787f71f3d55856e4058ed06ee057d79ada615f65cdf5f9ee88181b914225088f834f81565b6101996102353660046107f7565b61036e565b610158604051806040016040528060018152602001600360fc1b81525081565b6101996102683660046107f7565b61038d565b61012361027b3660046107cb565b610505565b610178600081565b610158604051806040016040528060018152602001603160f81b81525081565b6101996102b63660046107cb565b61053d565b60006001600160e01b03198216637965db0b60e01b14806102ec57506301ffc9a760e01b6001600160e01b03198316145b92915050565b6000908152600080516020610813833981519152602052604090206001015490565b61031d826102f2565b61032681610559565b6103308383610566565b50505050565b6001600160a01b038116331461035f5760405163334bd91960e11b815260040160405180910390fd5b610369828261060b565b505050565b610376610687565b61037e6106d2565b610389600082610566565b5050565b7ff0c57e16840df040f15088dc2f81fe391c3923bec73e23a9662efc9c229c6a008054600160401b810460ff16159067ffffffffffffffff166000811580156103d35750825b905060008267ffffffffffffffff1660011480156103f05750303b155b9050811580156103fe575080155b1561041c5760405163f92ee8a960e01b815260040160405180910390fd5b845467ffffffffffffffff19166001178555831561044657845460ff60401b1916600160401b1785555b61044e6106d2565b6104578661036e565b6104817f71f3d55856e4058ed06ee057d79ada615f65cdf5f9ee88181b914225088f834f87610566565b506000805260046020527f17ef568e3e12ab5b9c7254a8d58478811de00f9e6eb34345acd53bf8fd09d3ec805460ff1916600117905583156104fd57845460ff60401b19168555604051600181527fc7f505b2f371ae2175ee4913f4499e1f2633a7b5936321eed1cdaeb6115181d29060200160405180910390a15b505050505050565b6000918252600080516020610813833981519152602090815260408084206001600160a01b0393909316845291905290205460ff1690565b610546826102f2565b61054f81610559565b610330838361060b565b61056381336106da565b50565b60006000805160206108138339815191526105818484610505565b610601576000848152602082815260408083206001600160a01b03871684529091529020805460ff191660011790556105b73390565b6001600160a01b0316836001600160a01b0316857f2f8788117e7eff1d82e926ec794901d17c78024a50270940304540a733656f0d60405160405180910390a460019150506102ec565b60009150506102ec565b60006000805160206108138339815191526106268484610505565b15610601576000848152602082815260408083206001600160a01b0387168085529252808320805460ff1916905551339287917ff6391f5c32d9c69d2a47ea670b442974b53935d1edc7fd64eb21e047a839171b9190a460019150506102ec565b7ff0c57e16840df040f15088dc2f81fe391c3923bec73e23a9662efc9c229c6a0054600160401b900460ff166106d057604051631afcd79f60e31b815260040160405180910390fd5b565b6106d0610687565b6106e48282610505565b6103895760405163e2517d3f60e01b81526001600160a01b03821660048201526024810183905260440160405180910390fd5b60006020828403121561072957600080fd5b81356001600160e01b03198116811461074157600080fd5b9392505050565b602081526000825180602084015260005b818110156107765760208186018101516040868401015201610759565b506000604082850101526040601f19601f83011684010191505092915050565b6000602082840312156107a857600080fd5b5035919050565b80356001600160a01b03811681146107c657600080fd5b919050565b600080604083850312156107de57600080fd5b823591506107ee602084016107af565b90509250929050565b60006020828403121561080957600080fd5b610741826107af56fe02dd7bc7dec4dceedda775e58dd541e08a116c6c53815c0bd028192f7b626800a264697066735822122088bb4f448cf72ab2f0d71dab8caaae2ec7275b1bb6486ead9220b33c6922b79364736f6c634300081c0033",
          "opcodes": "PUSH1 0x80 PUSH1 0x40 MSTORE CALLVALUE DUP1 ISZERO PUSH1 0xF JUMPI PUSH1 0x0 DUP1 REVERT JUMPDEST POP PUSH1 0x16 PUSH1 0x1A JUMP JUMPDEST PUSH1 0xCA JUMP JUMPDEST PUSH32 0xF0C57E16840DF040F15088DC2F81FE391C3923BEC73E23A9662EFC9C229C6A00 DUP1 SLOAD PUSH9 0x10000000000000000 SWAP1 DIV PUSH1 0xFF AND ISZERO PUSH1 0x69 JUMPI PUSH1 0x40 MLOAD PUSH4 0xF92EE8A9 PUSH1 0xE0 SHL DUP2 MSTORE PUSH1 0x4 ADD PUSH1 0x40 MLOAD DUP1 SWAP2 SUB SWAP1 REVERT JUMPDEST DUP1 SLOAD PUSH1 0x1 PUSH1 0x1 PUSH1 0x40 SHL SUB SWAP1 DUP2 AND EQ PUSH1 0xC7 JUMPI DUP1 SLOAD PUSH1 0x1 PUSH1 0x1 PUSH1 0x40 SHL SUB NOT AND PUSH1 0x1 PUSH1 0x1 PUSH1 0x40 SHL SUB SWAP1 DUP2 OR DUP3 SSTORE PUSH1 0x40 MLOAD SWAP1 DUP2 MSTORE PUSH32 0xC7F505B2F371AE2175EE4913F4499E1F2633A7B5936321EED1CDAEB6115181D2 SWAP1 PUSH1 0x20 ADD PUSH1 0x40 MLOAD DUP1 SWAP2 SUB SWAP1 LOG1 JUMPDEST POP JUMP JUMPDEST PUSH2 0x868 DUP1 PUSH2 0xD9 PUSH1 0x0 CODECOPY PUSH1 0x0 RETURN INVALID PUSH1 0x80 PUSH1 0x40 MSTORE CALLVALUE DUP1 ISZERO PUSH2 0x10 JUMPI PUSH1 0x0 DUP1 REVERT JUMPDEST POP PUSH1 0x4 CALLDATASIZE LT PUSH2 0x10B JUMPI PUSH1 0x0 CALLDATALOAD PUSH1 0xE0 SHR DUP1 PUSH4 0x5C107264 GT PUSH2 0xA2 JUMPI DUP1 PUSH4 0x8FDEB4A6 GT PUSH2 0x71 JUMPI DUP1 PUSH4 0x8FDEB4A6 EQ PUSH2 0x25A JUMPI DUP1 PUSH4 0x91D14854 EQ PUSH2 0x26D JUMPI DUP1 PUSH4 0xA217FDDF EQ PUSH2 0x280 JUMPI DUP1 PUSH4 0xAD4FB5CD EQ PUSH2 0x288 JUMPI DUP1 PUSH4 0xD547741F EQ PUSH2 0x2A8 JUMPI PUSH1 0x0 DUP1 REVERT JUMPDEST DUP1 PUSH4 0x5C107264 EQ PUSH2 0x1E0 JUMPI DUP1 PUSH4 0x797669C9 EQ PUSH2 0x200 JUMPI DUP1 PUSH4 0x846D9C1B EQ PUSH2 0x227 JUMPI DUP1 PUSH4 0x8A2B34B2 EQ PUSH2 0x23A JUMPI PUSH1 0x0 DUP1 REVERT JUMPDEST DUP1 PUSH4 0x362C3AB8 GT PUSH2 0xDE JUMPI DUP1 PUSH4 0x362C3AB8 EQ PUSH2 0x19B JUMPI DUP1 PUSH4 0x36568ABE EQ PUSH2 0x1BB JUMPI DUP1 PUSH4 0x3C540687 EQ PUSH2 0x1CE JUMPI DUP1 PUSH4 0x41DC3412 EQ PUSH2 0x1D7 JUMPI PUSH1 0x0 DUP1 REVERT JUMPDEST DUP1 PUSH4 0x1FFC9A7 EQ PUSH2 0x110 JUMPI DUP1 PUSH4 0x1CEAE9C7 EQ PUSH2 0x138 JUMPI DUP1 PUSH4 0x248A9CA3 EQ PUSH2 0x165 JUMPI DUP1 PUSH4 0x2F2FF15D EQ PUSH2 0x186 JUMPI JUMPDEST PUSH1 0x0 DUP1 REVERT JUMPDEST PUSH2 0x123 PUSH2 0x11E CALLDATASIZE PUSH1 0x4 PUSH2 0x717 JUMP JUMPDEST PUSH2 0x2BB JUMP JUMPDEST PUSH1 0x40 MLOAD SWAP1 ISZERO ISZERO DUP2 MSTORE PUSH1 0x20 ADD JUMPDEST PUSH1 0x40 MLOAD DUP1 SWAP2 SUB SWAP1 RETURN JUMPDEST PUSH2 0x158 PUSH1 0x40 MLOAD DUP1 PUSH1 0x40 ADD PUSH1 0x40 MSTORE DUP1 PUSH1 0x1 DUP2 MSTORE PUSH1 0x20 ADD PUSH1 0xD PUSH1 0xFA SHL DUP2 MSTORE POP DUP2 JUMP JUMPDEST PUSH1 0x40 MLOAD PUSH2 0x12F SWAP2 SWAP1 PUSH2 0x748 JUMP JUMPDEST PUSH2 0x178 PUSH2 0x173 CALLDATASIZE PUSH1 0x4 PUSH2 0x796 JUMP JUMPDEST PUSH2 0x2F2 JUMP JUMPDEST PUSH1 0x40 MLOAD SWAP1 DUP2 MSTORE PUSH1 0x20 ADD PUSH2 0x12F JUMP JUMPDEST PUSH2 0x199 PUSH2 0x194 CALLDATASIZE PUSH1 0x4 PUSH2 0x7CB JUMP JUMPDEST PUSH2 0x314 JUMP JUMPDEST STOP JUMPDEST PUSH2 0x158 PUSH1 0x40 MLOAD DUP1 PUSH1 0x40 ADD PUSH1 0x40 MSTORE DUP1 PUSH1 0x1 DUP2 MSTORE PUSH1 0x20 ADD PUSH1 0x19 PUSH1 0xF9 SHL DUP2 MSTORE POP DUP2 JUMP JUMPDEST PUSH2 0x199 PUSH2 0x1C9 CALLDATASIZE PUSH1 0x4 PUSH2 0x7CB JUMP JUMPDEST PUSH2 0x336 JUMP JUMPDEST PUSH2 0x178 PUSH1 0x0 SLOAD DUP2 JUMP JUMPDEST PUSH2 0x178 PUSH1 0x1 SLOAD DUP2 JUMP JUMPDEST PUSH2 0x158 PUSH1 0x40 MLOAD DUP1 PUSH1 0x40 ADD PUSH1 0x40 MSTORE DUP1 PUSH1 0x1 DUP2 MSTORE PUSH1 0x20 ADD PUSH1 0x33 PUSH1 0xF8 SHL DUP2 MSTORE POP DUP2 JUMP JUMPDEST PUSH2 0x178 PUSH32 0x71F3D55856E4058ED06EE057D79ADA615F65CDF5F9EE88181B914225088F834F DUP2 JUMP JUMPDEST PUSH2 0x199 PUSH2 0x235 CALLDATASIZE PUSH1 0x4 PUSH2 0x7F7 JUMP JUMPDEST PUSH2 0x36E JUMP JUMPDEST PUSH2 0x158 PUSH1 0x40 MLOAD DUP1 PUSH1 0x40 ADD PUSH1 0x40 MSTORE DUP1 PUSH1 0x1 DUP2 MSTORE PUSH1 0x20 ADD PUSH1 0x3 PUSH1 0xFC SHL DUP2 MSTORE POP DUP2 JUMP JUMPDEST PUSH2 0x199 PUSH2 0x268 CALLDATASIZE PUSH1 0x4 PUSH2 0x7F7 JUMP JUMPDEST PUSH2 0x38D JUMP JUMPDEST PUSH2 0x123 PUSH2 0x27B CALLDATASIZE PUSH1 0x4 PUSH2 0x7CB JUMP JUMPDEST PUSH2 0x505 JUMP JUMPDEST PUSH2 0x178 PUSH1 0x0 DUP2 JUMP JUMPDEST PUSH2 0x158 PUSH1 0x40 MLOAD DUP1 PUSH1 0x40 ADD PUSH1 0x40 MSTORE DUP1 PUSH1 0x1 DUP2 MSTORE PUSH1 0x20 ADD PUSH1 0x31 PUSH1 0xF8 SHL DUP2 MSTORE POP DUP2 JUMP JUMPDEST PUSH2 0x199 PUSH2 0x2B6 CALLDATASIZE PUSH1 0x4 PUSH2 0x7CB JUMP JUMPDEST PUSH2 0x53D JUMP JUMPDEST PUSH1 0x0 PUSH1 0x1 PUSH1 0x1 PUSH1 0xE0 SHL SUB NOT DUP3 AND PUSH4 0x7965DB0B PUSH1 0xE0 SHL EQ DUP1 PUSH2 0x2EC JUMPI POP PUSH4 0x1FFC9A7 PUSH1 0xE0 SHL PUSH1 0x1 PUSH1 0x1 PUSH1 0xE0 SHL SUB NOT DUP4 AND EQ JUMPDEST SWAP3 SWAP2 POP POP JUMP JUMPDEST PUSH1 0x0 SWAP1 DUP2 MSTORE PUSH1 0x0 DUP1 MLOAD PUSH1 0x20 PUSH2 0x813 DUP4 CODECOPY DUP2 MLOAD SWAP2 MSTORE PUSH1 0x20 MSTORE PUSH1 0x40 SWAP1 KECCAK256 PUSH1 0x1 ADD SLOAD SWAP1 JUMP JUMPDEST PUSH2 0x31D DUP3 PUSH2 0x2F2 JUMP JUMPDEST PUSH2 0x326 DUP2 PUSH2 0x559 JUMP JUMPDEST PUSH2 0x330 DUP4 DUP4 PUSH2 0x566 JUMP JUMPDEST POP POP POP POP JUMP JUMPDEST PUSH1 0x1 PUSH1 0x1 PUSH1 0xA0 SHL SUB DUP2 AND CALLER EQ PUSH2 0x35F JUMPI PUSH1 0x40 MLOAD PUSH4 0x334BD919 PUSH1 0xE1 SHL DUP2 MSTORE PUSH1 0x4 ADD PUSH1 0x40 MLOAD DUP1 SWAP2 SUB SWAP1 REVERT JUMPDEST PUSH2 0x369 DUP3 DUP3 PUSH2 0x60B JUMP JUMPDEST POP POP POP JUMP JUMPDEST PUSH2 0x376 PUSH2 0x687 JUMP JUMPDEST PUSH2 0x37E PUSH2 0x6D2 JUMP JUMPDEST PUSH2 0x389 PUSH1 0x0 DUP3 PUSH2 0x566 JUMP JUMPDEST POP POP JUMP JUMPDEST PUSH32 0xF0C57E16840DF040F15088DC2F81FE391C3923BEC73E23A9662EFC9C229C6A00 DUP1 SLOAD PUSH1 0x1 PUSH1 0x40 SHL DUP2 DIV PUSH1 0xFF AND ISZERO SWAP1 PUSH8 0xFFFFFFFFFFFFFFFF AND PUSH1 0x0 DUP2 ISZERO DUP1 ISZERO PUSH2 0x3D3 JUMPI POP DUP3 JUMPDEST SWAP1 POP PUSH1 0x0 DUP3 PUSH8 0xFFFFFFFFFFFFFFFF AND PUSH1 0x1 EQ DUP1 ISZERO PUSH2 0x3F0 JUMPI POP ADDRESS EXTCODESIZE ISZERO JUMPDEST SWAP1 POP DUP2 ISZERO DUP1 ISZERO PUSH2 0x3FE JUMPI POP DUP1 ISZERO JUMPDEST ISZERO PUSH2 0x41C JUMPI PUSH1 0x40 MLOAD PUSH4 0xF92EE8A9 PUSH1 0xE0 SHL DUP2 MSTORE PUSH1 0x4 ADD PUSH1 0x40 MLOAD DUP1 SWAP2 SUB SWAP1 REVERT JUMPDEST DUP5 SLOAD PUSH8 0xFFFFFFFFFFFFFFFF NOT AND PUSH1 0x1 OR DUP6 SSTORE DUP4 ISZERO PUSH2 0x446 JUMPI DUP5 SLOAD PUSH1 0xFF PUSH1 0x40 SHL NOT AND PUSH1 0x1 PUSH1 0x40 SHL OR DUP6 SSTORE JUMPDEST PUSH2 0x44E PUSH2 0x6D2 JUMP JUMPDEST PUSH2 0x457 DUP7 PUSH2 0x36E JUMP JUMPDEST PUSH2 0x481 PUSH32 0x71F3D55856E4058ED06EE057D79ADA615F65CDF5F9EE88181B914225088F834F DUP8 PUSH2 0x566 JUMP JUMPDEST POP PUSH1 0x0 DUP1 MSTORE PUSH1 0x4 PUSH1 0x20 MSTORE PUSH32 0x17EF568E3E12AB5B9C7254A8D58478811DE00F9E6EB34345ACD53BF8FD09D3EC DUP1 SLOAD PUSH1 0xFF NOT AND PUSH1 0x1 OR SWAP1 SSTORE DUP4 ISZERO PUSH2 0x4FD JUMPI DUP5 SLOAD PUSH1 0xFF PUSH1 0x40 SHL NOT AND DUP6 SSTORE PUSH1 0x40 MLOAD PUSH1 0x1 DUP2 MSTORE PUSH32 0xC7F505B2F371AE2175EE4913F4499E1F2633A7B5936321EED1CDAEB6115181D2 SWAP1 PUSH1 0x20 ADD PUSH1 0x40 MLOAD DUP1 SWAP2 SUB SWAP1 LOG1 JUMPDEST POP POP POP POP POP POP JUMP JUMPDEST PUSH1 0x0 SWAP2 DUP3 MSTORE PUSH1 0x0 DUP1 MLOAD PUSH1 0x20 PUSH2 0x813 DUP4 CODECOPY DUP2 MLOAD SWAP2 MSTORE PUSH1 0x20 SWAP1 DUP2 MSTORE PUSH1 0x40 DUP1 DUP5 KECCAK256 PUSH1 0x1 PUSH1 0x1 PUSH1 0xA0 SHL SUB SWAP4 SWAP1 SWAP4 AND DUP5 MSTORE SWAP2 SWAP1 MSTORE SWAP1 KECCAK256 SLOAD PUSH1 0xFF AND SWAP1 JUMP JUMPDEST PUSH2 0x546 DUP3 PUSH2 0x2F2 JUMP JUMPDEST PUSH2 0x54F DUP2 PUSH2 0x559 JUMP JUMPDEST PUSH2 0x330 DUP4 DUP4 PUSH2 0x60B JUMP JUMPDEST PUSH2 0x563 DUP2 CALLER PUSH2 0x6DA JUMP JUMPDEST POP JUMP JUMPDEST PUSH1 0x0 PUSH1 0x0 DUP1 MLOAD PUSH1 0x20 PUSH2 0x813 DUP4 CODECOPY DUP2 MLOAD SWAP2 MSTORE PUSH2 0x581 DUP5 DUP5 PUSH2 0x505 JUMP JUMPDEST PUSH2 0x601 JUMPI PUSH1 0x0 DUP5 DUP2 MSTORE PUSH1 0x20 DUP3 DUP2 MSTORE PUSH1 0x40 DUP1 DUP4 KECCAK256 PUSH1 0x1 PUSH1 0x1 PUSH1 0xA0 SHL SUB DUP8 AND DUP5 MSTORE SWAP1 SWAP2 MSTORE SWAP1 KECCAK256 DUP1 SLOAD PUSH1 0xFF NOT AND PUSH1 0x1 OR SWAP1 SSTORE PUSH2 0x5B7 CALLER SWAP1 JUMP JUMPDEST PUSH1 0x1 PUSH1 0x1 PUSH1 0xA0 SHL SUB AND DUP4 PUSH1 0x1 PUSH1 0x1 PUSH1 0xA0 SHL SUB AND DUP6 PUSH32 0x2F8788117E7EFF1D82E926EC794901D17C78024A50270940304540A733656F0D PUSH1 0x40 MLOAD PUSH1 0x40 MLOAD DUP1 SWAP2 SUB SWAP1 LOG4 PUSH1 0x1 SWAP2 POP POP PUSH2 0x2EC JUMP JUMPDEST PUSH1 0x0 SWAP2 POP POP PUSH2 0x2EC JUMP JUMPDEST PUSH1 0x0 PUSH1 0x0 DUP1 MLOAD PUSH1 0x20 PUSH2 0x813 DUP4 CODECOPY DUP2 MLOAD SWAP2 MSTORE PUSH2 0x626 DUP5 DUP5 PUSH2 0x505 JUMP JUMPDEST ISZERO PUSH2 0x601 JUMPI PUSH1 0x0 DUP5 DUP2 MSTORE PUSH1 0x20 DUP3 DUP2 MSTORE PUSH1 0x40 DUP1 DUP4 KECCAK256 PUSH1 0x1 PUSH1 0x1 PUSH1 0xA0 SHL SUB DUP8 AND DUP1 DUP6 MSTORE SWAP3 MSTORE DUP1 DUP4 KECCAK256 DUP1 SLOAD PUSH1 0xFF NOT AND SWAP1 SSTORE MLOAD CALLER SWAP3 DUP8 SWAP2 PUSH32 0xF6391F5C32D9C69D2A47EA670B442974B53935D1EDC7FD64EB21E047A839171B SWAP2 SWAP1 LOG4 PUSH1 0x1 SWAP2 POP POP PUSH2 0x2EC JUMP JUMPDEST PUSH32 0xF0C57E16840DF040F15088DC2F81FE391C3923BEC73E23A9662EFC9C229C6A00 SLOAD PUSH1 0x1 PUSH1 0x40 SHL SWAP1 DIV PUSH1 0xFF AND PUSH2 0x6D0 JUMPI PUSH1 0x40 MLOAD PUSH4 0x1AFCD79F PUSH1 0xE3 SHL DUP2 MSTORE PUSH1 0x4 ADD PUSH1 0x40 MLOAD DUP1 SWAP2 SUB SWAP1 REVERT JUMPDEST JUMP JUMPDEST PUSH2 0x6D0 PUSH2 0x687 JUMP JUMPDEST PUSH2 0x6E4 DUP3 DUP3 PUSH2 0x505 JUMP JUMPDEST PUSH2 0x389 JUMPI PUSH1 0x40 MLOAD PUSH4 0xE2517D3F PUSH1 0xE0 SHL DUP2 MSTORE PUSH1 0x1 PUSH1 0x1 PUSH1 0xA0 SHL SUB DUP3 AND PUSH1 0x4 DUP3 ADD MSTORE PUSH1 0x24 DUP2 ADD DUP4 SWAP1 MSTORE PUSH1 0x44 ADD PUSH1 0x40 MLOAD DUP1 SWAP2 SUB SWAP1 REVERT JUMPDEST PUSH1 0x0 PUSH1 0x20 DUP3 DUP5 SUB SLT ISZERO PUSH2 0x729 JUMPI PUSH1 0x0 DUP1 REVERT JUMPDEST DUP2 CALLDATALOAD PUSH1 0x1 PUSH1 0x1 PUSH1 0xE0 SHL SUB NOT DUP2 AND DUP2 EQ PUSH2 0x741 JUMPI PUSH1 0x0 DUP1 REVERT JUMPDEST SWAP4 SWAP3 POP POP POP JUMP JUMPDEST PUSH1 0x20 DUP2 MSTORE PUSH1 0x0 DUP3 MLOAD DUP1 PUSH1 0x20 DUP5 ADD MSTORE PUSH1 0x0 JUMPDEST DUP2 DUP2 LT ISZERO PUSH2 0x776 JUMPI PUSH1 0x20 DUP2 DUP7 ADD DUP2 ADD MLOAD PUSH1 0x40 DUP7 DUP5 ADD ADD MSTORE ADD PUSH2 0x759 JUMP JUMPDEST POP PUSH1 0x0 PUSH1 0x40 DUP3 DUP6 ADD ADD MSTORE PUSH1 0x40 PUSH1 0x1F NOT PUSH1 0x1F DUP4 ADD AND DUP5 ADD ADD SWAP2 POP POP SWAP3 SWAP2 POP POP JUMP JUMPDEST PUSH1 0x0 PUSH1 0x20 DUP3 DUP5 SUB SLT ISZERO PUSH2 0x7A8 JUMPI PUSH1 0x0 DUP1 REVERT JUMPDEST POP CALLDATALOAD SWAP2 SWAP1 POP JUMP JUMPDEST DUP1 CALLDATALOAD PUSH1 0x1 PUSH1 0x1 PUSH1 0xA0 SHL SUB DUP2 AND DUP2 EQ PUSH2 0x7C6 JUMPI PUSH1 0x0 DUP1 REVERT JUMPDEST SWAP2 SWAP1 POP JUMP JUMPDEST PUSH1 0x0 DUP1 PUSH1 0x40 DUP4 DUP6 SUB SLT ISZERO PUSH2 0x7DE JUMPI PUSH1 0x0 DUP1 REVERT JUMPDEST DUP3 CALLDATALOAD SWAP2 POP PUSH2 0x7EE PUSH1 0x20 DUP5 ADD PUSH2 0x7AF JUMP JUMPDEST SWAP1 POP SWAP3 POP SWAP3 SWAP1 POP JUMP JUMPDEST PUSH1 0x0 PUSH1 0x20 DUP3 DUP5 SUB SLT ISZERO PUSH2 0x809 JUMPI PUSH1 0x0 DUP1 REVERT JUMPDEST PUSH2 0x741 DUP3 PUSH2 0x7AF JUMP INVALID MUL 0xDD PUSH28 0xC7DEC4DCEEDDA775E58DD541E08A116C6C53815C0BD028192F7B6268 STOP LOG2 PUSH5 0x6970667358 0x22 SLT KECCAK256 DUP9 0xBB 0x4F PREVRANDAO DUP13 0xF7 0x2A 0xB2 CREATE 0xD7 SAR 0xAB DUP13 0xAA 0xAE 0x2E 0xC7 0x27 JUMPDEST SHL 0xB6 BASEFEE PUSH15 0xAD9220B33C6922B79364736F6C6343 STOP ADDMOD SHR STOP CALLER "
        },
        "methodIdentifiers": {
          "DEFAULT_ADMIN_ROLE()": "a217fddf",
          "ERROR_EXPIRED_RESOURCE()": "1ceae9c7",
          "ERROR_INVALID_PRICE()": "362c3ab8",
          "ERROR_NOT_FOUND()": "ad4fb5cd",
          "ERROR_PROCESS_FAILED()": "5c107264",
          "ERROR_UNAUTHORIZED_ACCESS()": "8a2b34b2",
          "MODERATOR_ROLE()": "797669c9",
          "billCount()": "41dc3412",
          "getRoleAdmin(bytes32)": "248a9ca3",
          "grantRole(bytes32,address)": "2f2ff15d",
          "hasRole(bytes32,address)": "91d14854",
          "init_base_app(address)": "846d9c1b",
          "init_gateway(address)": "8fdeb4a6",
          "renounceRole(bytes32,address)": "36568abe",
          "revokeRole(bytes32,address)": "d547741f",
          "supportsInterface(bytes4)": "01ffc9a7",
          "txCount()": "3c540687"
        }
      },
      "storageLayout": {
        "storage": [
          {
            "astId": 3056,
            "contract": "contracts/Gateway.sol:Gateway",
            "label": "txCount",
            "offset": 0,
            "slot": "0",
            "type": "t_uint256"
          },
          {
            "astId": 3058,
            "contract": "contracts/Gateway.sol:Gateway",
            "label": "billCount",
            "offset": 0,
            "slot": "1",
            "type": "t_uint256"
          },
          {
            "astId": 3061,
            "contract": "contracts/Gateway.sol:Gateway",
            "label": "_tokenAddresses",
            "offset": 0,
            "slot": "2",
            "type": "t_array(t_address)dyn_storage"
          },
          {
            "astId": 3066,
            "contract": "contracts/Gateway.sol:Gateway",
            "label": "_bills",
            "offset": 0,
            "slot": "3",
            "type": "t_mapping(t_uint256,t_struct(Bill)3146_storage)"
          },
          {
            "astId": 3070,
            "contract": "contracts/Gateway.sol:Gateway",
            "label": "_enlistedTokens",
            "offset": 0,
            "slot": "4",
            "type": "t_mapping(t_address,t_bool)"
          },
          {
            "astId": 3075,
            "contract": "contracts/Gateway.sol:Gateway",
            "label": "_transactions",
            "offset": 0,
            "slot": "5",
            "type": "t_mapping(t_uint256,t_struct(Transaction)3171_storage)"
          },
          {
            "astId": 3079,
            "contract": "contracts/Gateway.sol:Gateway",
            "label": "_extBillIdToBill",
            "offset": 0,
            "slot": "6",
            "type": "t_mapping(t_bytes_memory_ptr,t_uint256)"
          },
          {
            "astId": 3083,
            "contract": "contracts/Gateway.sol:Gateway",
            "label": "_extIdToTransaction",
            "offset": 0,
            "slot": "7",
            "type": "t_mapping(t_bytes_memory_ptr,t_uint256)"
          }
        ],
        "types": {
          "t_address": {
            "encoding": "inplace",
            "label": "address",
            "numberOfBytes": "20"
          },
          "t_address_payable": {
            "encoding": "inplace",
            "label": "address payable",
            "numberOfBytes": "20"
          },
          "t_array(t_address)dyn_storage": {
            "base": "t_address",
            "encoding": "dynamic_array",
            "label": "address[]",
            "numberOfBytes": "32"
          },
          "t_bool": {
            "encoding": "inplace",
            "label": "bool",
            "numberOfBytes": "1"
          },
          "t_bytes_memory_ptr": {
            "encoding": "bytes",
            "label": "bytes",
            "numberOfBytes": "32"
          },
          "t_bytes_storage": {
            "encoding": "bytes",
            "label": "bytes",
            "numberOfBytes": "32"
          },
          "t_enum(BillType)3132": {
            "encoding": "inplace",
            "label": "enum BillType",
            "numberOfBytes": "1"
          },
          "t_enum(TransactionType)3151": {
            "encoding": "inplace",
            "label": "enum TransactionType",
            "numberOfBytes": "1"
          },
          "t_mapping(t_address,t_bool)": {
            "encoding": "mapping",
            "key": "t_address",
            "label": "mapping(address => bool)",
            "numberOfBytes": "32",
            "value": "t_bool"
          },
          "t_mapping(t_bytes_memory_ptr,t_uint256)": {
            "encoding": "mapping",
            "key": "t_bytes_memory_ptr",
            "label": "mapping(bytes => uint256)",
            "numberOfBytes": "32",
            "value": "t_uint256"
          },
          "t_mapping(t_uint256,t_struct(Bill)3146_storage)": {
            "encoding": "mapping",
            "key": "t_uint256",
            "label": "mapping(uint256 => struct Bill)",
            "numberOfBytes": "32",
            "value": "t_struct(Bill)3146_storage"
          },
          "t_mapping(t_uint256,t_struct(Transaction)3171_storage)": {
            "encoding": "mapping",
            "key": "t_uint256",
            "label": "mapping(uint256 => struct Transaction)",
            "numberOfBytes": "32",
            "value": "t_struct(Transaction)3171_storage"
          },
          "t_string_storage": {
            "encoding": "bytes",
            "label": "string",
            "numberOfBytes": "32"
          },
          "t_struct(Bill)3146_storage": {
            "encoding": "inplace",
            "label": "struct Bill",
            "members": [
              {
                "astId": 3134,
                "contract": "contracts/Gateway.sol:Gateway",
                "label": "billId",
                "offset": 0,
                "slot": "0",
                "type": "t_bytes_storage"
              },
              {
                "astId": 3136,
                "contract": "contracts/Gateway.sol:Gateway",
                "label": "providerId",
                "offset": 0,
                "slot": "1",
                "type": "t_bytes_storage"
              },
              {
                "astId": 3139,
                "contract": "contracts/Gateway.sol:Gateway",
                "label": "billType",
                "offset": 0,
                "slot": "2",
                "type": "t_enum(BillType)3132"
              },
              {
                "astId": 3141,
                "contract": "contracts/Gateway.sol:Gateway",
                "label": "processedBy",
                "offset": 1,
                "slot": "2",
                "type": "t_address"
              },
              {
                "astId": 3143,
                "contract": "contracts/Gateway.sol:Gateway",
                "label": "amount",
                "offset": 0,
                "slot": "3",
                "type": "t_uint256"
              },
              {
                "astId": 3145,
                "contract": "contracts/Gateway.sol:Gateway",
                "label": "timestamp",
                "offset": 0,
                "slot": "4",
                "type": "t_uint256"
              }
            ],
            "numberOfBytes": "160"
          },
          "t_struct(Transaction)3171_storage": {
            "encoding": "inplace",
            "label": "struct Transaction",
            "members": [
              {
                "astId": 3153,
                "contract": "contracts/Gateway.sol:Gateway",
                "label": "extId",
                "offset": 0,
                "slot": "0",
                "type": "t_bytes_storage"
              },
              {
                "astId": 3155,
                "contract": "contracts/Gateway.sol:Gateway",
                "label": "billId",
                "offset": 0,
                "slot": "1",
                "type": "t_uint256"
              },
              {
                "astId": 3158,
                "contract": "contracts/Gateway.sol:Gateway",
                "label": "txType",
                "offset": 0,
                "slot": "2",
                "type": "t_enum(TransactionType)3151"
              },
              {
                "astId": 3160,
                "contract": "contracts/Gateway.sol:Gateway",
                "label": "sender",
                "offset": 1,
                "slot": "2",
                "type": "t_address_payable"
              },
              {
                "astId": 3162,
                "contract": "contracts/Gateway.sol:Gateway",
                "label": "txAmount",
                "offset": 0,
                "slot": "3",
                "type": "t_uint256"
              },
              {
                "astId": 3164,
                "contract": "contracts/Gateway.sol:Gateway",
                "label": "txFee",
                "offset": 0,
                "slot": "4",
                "type": "t_uint256"
              },
              {
                "astId": 3166,
                "contract": "contracts/Gateway.sol:Gateway",
                "label": "txDate",
                "offset": 0,
                "slot": "5",
                "type": "t_uint256"
              },
              {
                "astId": 3168,
                "contract": "contracts/Gateway.sol:Gateway",
                "label": "tokenAddress",
                "offset": 0,
                "slot": "6",
                "type": "t_address"
              },
              {
                "astId": 3170,
                "contract": "contracts/Gateway.sol:Gateway",
                "label": "remark",
                "offset": 0,
                "slot": "7",
                "type": "t_string_storage"
              }
            ],
            "numberOfBytes": "256"
          },
          "t_uint256": {
            "encoding": "inplace",
            "label": "uint256",
            "numberOfBytes": "32"
          }
        }
      }
    }
  }
}