{
  "contracts/Base.sol": {
    "Base": {
      "abi": [
        {
          "inputs": [],
          "name": "AccessControlBadConfirmation",
          "type": "error"
        },
        {
          "inputs": [
            {
              "internalType": "address",
              "name": "account",
              "type": "address"
            },
            {
              "internalType": "bytes32",
              "name": "neededRole",
              "type": "bytes32"
            }
          ],
          "name": "AccessControlUnauthorizedAccount",
          "type": "error"
        },
        {
          "inputs": [],
          "name": "InvalidInitialization",
          "type": "error"
        },
        {
          "inputs": [],
          "name": "NotInitializing",
          "type": "error"
        },
        {
          "inputs": [],
          "name": "ReentrancyGuardReentrantCall",
          "type": "error"
        },
        {
          "anonymous": false,
          "inputs": [
            {
              "indexed": false,
              "internalType": "uint64",
              "name": "version",
              "type": "uint64"
            }
          ],
          "name": "Initialized",
          "type": "event"
        },
        {
          "anonymous": false,
          "inputs": [
            {
              "indexed": true,
              "internalType": "bytes32",
              "name": "role",
              "type": "bytes32"
            },
            {
              "indexed": true,
              "internalType": "bytes32",
              "name": "previousAdminRole",
              "type": "bytes32"
            },
            {
              "indexed": true,
              "internalType": "bytes32",
              "name": "newAdminRole",
              "type": "bytes32"
            }
          ],
          "name": "RoleAdminChanged",
          "type": "event"
        },
        {
          "anonymous": false,
          "inputs": [
            {
              "indexed": true,
              "internalType": "bytes32",
              "name": "role",
              "type": "bytes32"
            },
            {
              "indexed": true,
              "internalType": "address",
              "name": "account",
              "type": "address"
            },
            {
              "indexed": true,
              "internalType": "address",
              "name": "sender",
              "type": "address"
            }
          ],
          "name": "RoleGranted",
          "type": "event"
        },
        {
          "anonymous": false,
          "inputs": [
            {
              "indexed": true,
              "internalType": "bytes32",
              "name": "role",
              "type": "bytes32"
            },
            {
              "indexed": true,
              "internalType": "address",
              "name": "account",
              "type": "address"
            },
            {
              "indexed": true,
              "internalType": "address",
              "name": "sender",
              "type": "address"
            }
          ],
          "name": "RoleRevoked",
          "type": "event"
        },
        {
          "inputs": [],
          "name": "DEFAULT_ADMIN_ROLE",
          "outputs": [
            {
              "internalType": "bytes32",
              "name": "",
              "type": "bytes32"
            }
          ],
          "stateMutability": "view",
          "type": "function"
        },
        {
          "inputs": [],
          "name": "ERROR_EXPIRED_RESOURCE",
          "outputs": [
            {
              "internalType": "string",
              "name": "",
              "type": "string"
            }
          ],
          "stateMutability": "view",
          "type": "function"
        },
        {
          "inputs": [],
          "name": "ERROR_INVALID_PRICE",
          "outputs": [
            {
              "internalType": "string",
              "name": "",
              "type": "string"
            }
          ],
          "stateMutability": "view",
          "type": "function"
        },
        {
          "inputs": [],
          "name": "ERROR_NOT_FOUND",
          "outputs": [
            {
              "internalType": "string",
              "name": "",
              "type": "string"
            }
          ],
          "stateMutability": "view",
          "type": "function"
        },
        {
          "inputs": [],
          "name": "ERROR_PROCESS_FAILED",
          "outputs": [
            {
              "internalType": "string",
              "name": "",
              "type": "string"
            }
          ],
          "stateMutability": "view",
          "type": "function"
        },
        {
          "inputs": [],
          "name": "ERROR_UNAUTHORIZED_ACCESS",
          "outputs": [
            {
              "internalType": "string",
              "name": "",
              "type": "string"
            }
          ],
          "stateMutability": "view",
          "type": "function"
        },
        {
          "inputs": [],
          "name": "MODERATOR_ROLE",
          "outputs": [
            {
              "internalType": "bytes32",
              "name": "",
              "type": "bytes32"
            }
          ],
          "stateMutability": "view",
          "type": "function"
        },
        {
          "inputs": [
            {
              "internalType": "bytes32",
              "name": "role",
              "type": "bytes32"
            }
          ],
          "name": "getRoleAdmin",
          "outputs": [
            {
              "internalType": "bytes32",
              "name": "",
              "type": "bytes32"
            }
          ],
          "stateMutability": "view",
          "type": "function"
        },
        {
          "inputs": [
            {
              "internalType": "bytes32",
              "name": "role",
              "type": "bytes32"
            },
            {
              "internalType": "address",
              "name": "account",
              "type": "address"
            }
          ],
          "name": "grantRole",
          "outputs": [],
          "stateMutability": "nonpayable",
          "type": "function"
        },
        {
          "inputs": [
            {
              "internalType": "bytes32",
              "name": "role",
              "type": "bytes32"
            },
            {
              "internalType": "address",
              "name": "account",
              "type": "address"
            }
          ],
          "name": "hasRole",
          "outputs": [
            {
              "internalType": "bool",
              "name": "",
              "type": "bool"
            }
          ],
          "stateMutability": "view",
          "type": "function"
        },
        {
          "inputs": [
            {
              "internalType": "address",
              "name": "_admin",
              "type": "address"
            }
          ],
          "name": "init_base_app",
          "outputs": [],
          "stateMutability": "nonpayable",
          "type": "function"
        },
        {
          "inputs": [
            {
              "internalType": "bytes32",
              "name": "role",
              "type": "bytes32"
            },
            {
              "internalType": "address",
              "name": "callerConfirmation",
              "type": "address"
            }
          ],
          "name": "renounceRole",
          "outputs": [],
          "stateMutability": "nonpayable",
          "type": "function"
        },
        {
          "inputs": [
            {
              "internalType": "bytes32",
              "name": "role",
              "type": "bytes32"
            },
            {
              "internalType": "address",
              "name": "account",
              "type": "address"
            }
          ],
          "name": "revokeRole",
          "outputs": [],
          "stateMutability": "nonpayable",
          "type": "function"
        },
        {
          "inputs": [
            {
              "internalType": "bytes4",
              "name": "interfaceId",
              "type": "bytes4"
            }
          ],
          "name": "supportsInterface",
          "outputs": [
            {
              "internalType": "bool",
              "name": "",
              "type": "bool"
            }
          ],
          "stateMutability": "view",
          "type": "function"
        }
      ],
      "evm": {
        "bytecode": {
          "linkReferences": {},
          "object": "6080604052348015600f57600080fd5b506106af8061001f6000396000f3fe608060405234801561001057600080fd5b50600436106100ea5760003560e01c8063797669c91161008c57806391d148541161006657806391d1485414610227578063a217fddf1461023a578063ad4fb5cd14610242578063d547741f1461026257600080fd5b8063797669c9146101cd578063846d9c1b146101f45780638a2b34b21461020757600080fd5b80632f2ff15d116100c85780632f2ff15d14610165578063362c3ab81461017a57806336568abe1461019a5780635c107264146101ad57600080fd5b806301ffc9a7146100ef5780631ceae9c714610117578063248a9ca314610144575b600080fd5b6101026100fd36600461055e565b610275565b60405190151581526020015b60405180910390f35b610137604051806040016040528060018152602001600d60fa1b81525081565b60405161010e919061058f565b6101576101523660046105dd565b6102ac565b60405190815260200161010e565b610178610173366004610612565b6102ce565b005b610137604051806040016040528060018152602001601960f91b81525081565b6101786101a8366004610612565b6102f0565b610137604051806040016040528060018152602001603360f81b81525081565b6101577f71f3d55856e4058ed06ee057d79ada615f65cdf5f9ee88181b914225088f834f81565b61017861020236600461063e565b610328565b610137604051806040016040528060018152602001600360fc1b81525081565b610102610235366004610612565b610347565b610157600081565b610137604051806040016040528060018152602001603160f81b81525081565b610178610270366004610612565b61037f565b60006001600160e01b03198216637965db0b60e01b14806102a657506301ffc9a760e01b6001600160e01b03198316145b92915050565b600090815260008051602061065a833981519152602052604090206001015490565b6102d7826102ac565b6102e08161039b565b6102ea83836103a8565b50505050565b6001600160a01b03811633146103195760405163334bd91960e11b815260040160405180910390fd5b610323828261044d565b505050565b6103306104c9565b610338610519565b6103436000826103a8565b5050565b600091825260008051602061065a833981519152602090815260408084206001600160a01b0393909316845291905290205460ff1690565b610388826102ac565b6103918161039b565b6102ea838361044d565b6103a58133610521565b50565b600060008051602061065a8339815191526103c38484610347565b610443576000848152602082815260408083206001600160a01b03871684529091529020805460ff191660011790556103f93390565b6001600160a01b0316836001600160a01b0316857f2f8788117e7eff1d82e926ec794901d17c78024a50270940304540a733656f0d60405160405180910390a460019150506102a6565b60009150506102a6565b600060008051602061065a8339815191526104688484610347565b15610443576000848152602082815260408083206001600160a01b0387168085529252808320805460ff1916905551339287917ff6391f5c32d9c69d2a47ea670b442974b53935d1edc7fd64eb21e047a839171b9190a460019150506102a6565b7ff0c57e16840df040f15088dc2f81fe391c3923bec73e23a9662efc9c229c6a005468010000000000000000900460ff1661051757604051631afcd79f60e31b815260040160405180910390fd5b565b6105176104c9565b61052b8282610347565b6103435760405163e2517d3f60e01b81526001600160a01b03821660048201526024810183905260440160405180910390fd5b60006020828403121561057057600080fd5b81356001600160e01b03198116811461058857600080fd5b9392505050565b602081526000825180602084015260005b818110156105bd57602081860181015160408684010152016105a0565b506000604082850101526040601f19601f83011684010191505092915050565b6000602082840312156105ef57600080fd5b5035919050565b80356001600160a01b038116811461060d57600080fd5b919050565b6000806040838503121561062557600080fd5b82359150610635602084016105f6565b90509250929050565b60006020828403121561065057600080fd5b610588826105f656fe02dd7bc7dec4dceedda775e58dd541e08a116c6c53815c0bd028192f7b626800a264697066735822122028c86b98dd1661886d4fbabba9242aed26c1f3b4fbac94e201647d9221ee09c364736f6c634300081c0033",
          "opcodes": "PUSH1 0x80 PUSH1 0x40 MSTORE CALLVALUE DUP1 ISZERO PUSH1 0xF JUMPI PUSH1 0x0 DUP1 REVERT JUMPDEST POP PUSH2 0x6AF DUP1 PUSH2 0x1F PUSH1 0x0 CODECOPY PUSH1 0x0 RETURN INVALID PUSH1 0x80 PUSH1 0x40 MSTORE CALLVALUE DUP1 ISZERO PUSH2 0x10 JUMPI PUSH1 0x0 DUP1 REVERT JUMPDEST POP PUSH1 0x4 CALLDATASIZE LT PUSH2 0xEA JUMPI PUSH1 0x0 CALLDATALOAD PUSH1 0xE0 SHR DUP1 PUSH4 0x797669C9 GT PUSH2 0x8C JUMPI DUP1 PUSH4 0x91D14854 GT PUSH2 0x66 JUMPI DUP1 PUSH4 0x91D14854 EQ PUSH2 0x227 JUMPI DUP1 PUSH4 0xA217FDDF EQ PUSH2 0x23A JUMPI DUP1 PUSH4 0xAD4FB5CD EQ PUSH2 0x242 JUMPI DUP1 PUSH4 0xD547741F EQ PUSH2 0x262 JUMPI PUSH1 0x0 DUP1 REVERT JUMPDEST DUP1 PUSH4 0x797669C9 EQ PUSH2 0x1CD JUMPI DUP1 PUSH4 0x846D9C1B EQ PUSH2 0x1F4 JUMPI DUP1 PUSH4 0x8A2B34B2 EQ PUSH2 0x207 JUMPI PUSH1 0x0 DUP1 REVERT JUMPDEST DUP1 PUSH4 0x2F2FF15D GT PUSH2 0xC8 JUMPI DUP1 PUSH4 0x2F2FF15D EQ PUSH2 0x165 JUMPI DUP1 PUSH4 0x362C3AB8 EQ PUSH2 0x17A JUMPI DUP1 PUSH4 0x36568ABE EQ PUSH2 0x19A JUMPI DUP1 PUSH4 0x5C107264 EQ PUSH2 0x1AD JUMPI PUSH1 0x0 DUP1 REVERT JUMPDEST DUP1 PUSH4 0x1FFC9A7 EQ PUSH2 0xEF JUMPI DUP1 PUSH4 0x1CEAE9C7 EQ PUSH2 0x117 JUMPI DUP1 PUSH4 0x248A9CA3 EQ PUSH2 0x144 JUMPI JUMPDEST PUSH1 0x0 DUP1 REVERT JUMPDEST PUSH2 0x102 PUSH2 0xFD CALLDATASIZE PUSH1 0x4 PUSH2 0x55E JUMP JUMPDEST PUSH2 0x275 JUMP JUMPDEST PUSH1 0x40 MLOAD SWAP1 ISZERO ISZERO DUP2 MSTORE PUSH1 0x20 ADD JUMPDEST PUSH1 0x40 MLOAD DUP1 SWAP2 SUB SWAP1 RETURN JUMPDEST PUSH2 0x137 PUSH1 0x40 MLOAD DUP1 PUSH1 0x40 ADD PUSH1 0x40 MSTORE DUP1 PUSH1 0x1 DUP2 MSTORE PUSH1 0x20 ADD PUSH1 0xD PUSH1 0xFA SHL DUP2 MSTORE POP DUP2 JUMP JUMPDEST PUSH1 0x40 MLOAD PUSH2 0x10E SWAP2 SWAP1 PUSH2 0x58F JUMP JUMPDEST PUSH2 0x157 PUSH2 0x152 CALLDATASIZE PUSH1 0x4 PUSH2 0x5DD JUMP JUMPDEST PUSH2 0x2AC JUMP JUMPDEST PUSH1 0x40 MLOAD SWAP1 DUP2 MSTORE PUSH1 0x20 ADD PUSH2 0x10E JUMP JUMPDEST PUSH2 0x178 PUSH2 0x173 CALLDATASIZE PUSH1 0x4 PUSH2 0x612 JUMP JUMPDEST PUSH2 0x2CE JUMP JUMPDEST STOP JUMPDEST PUSH2 0x137 PUSH1 0x40 MLOAD DUP1 PUSH1 0x40 ADD PUSH1 0x40 MSTORE DUP1 PUSH1 0x1 DUP2 MSTORE PUSH1 0x20 ADD PUSH1 0x19 PUSH1 0xF9 SHL DUP2 MSTORE POP DUP2 JUMP JUMPDEST PUSH2 0x178 PUSH2 0x1A8 CALLDATASIZE PUSH1 0x4 PUSH2 0x612 JUMP JUMPDEST PUSH2 0x2F0 JUMP JUMPDEST PUSH2 0x137 PUSH1 0x40 MLOAD DUP1 PUSH1 0x40 ADD PUSH1 0x40 MSTORE DUP1 PUSH1 0x1 DUP2 MSTORE PUSH1 0x20 ADD PUSH1 0x33 PUSH1 0xF8 SHL DUP2 MSTORE POP DUP2 JUMP JUMPDEST PUSH2 0x157 PUSH32 0x71F3D55856E4058ED06EE057D79ADA615F65CDF5F9EE88181B914225088F834F DUP2 JUMP JUMPDEST PUSH2 0x178 PUSH2 0x202 CALLDATASIZE PUSH1 0x4 PUSH2 0x63E JUMP JUMPDEST PUSH2 0x328 JUMP JUMPDEST PUSH2 0x137 PUSH1 0x40 MLOAD DUP1 PUSH1 0x40 ADD PUSH1 0x40 MSTORE DUP1 PUSH1 0x1 DUP2 MSTORE PUSH1 0x20 ADD PUSH1 0x3 PUSH1 0xFC SHL DUP2 MSTORE POP DUP2 JUMP JUMPDEST PUSH2 0x102 PUSH2 0x235 CALLDATASIZE PUSH1 0x4 PUSH2 0x612 JUMP JUMPDEST PUSH2 0x347 JUMP JUMPDEST PUSH2 0x157 PUSH1 0x0 DUP2 JUMP JUMPDEST PUSH2 0x137 PUSH1 0x40 MLOAD DUP1 PUSH1 0x40 ADD PUSH1 0x40 MSTORE DUP1 PUSH1 0x1 DUP2 MSTORE PUSH1 0x20 ADD PUSH1 0x31 PUSH1 0xF8 SHL DUP2 MSTORE POP DUP2 JUMP JUMPDEST PUSH2 0x178 PUSH2 0x270 CALLDATASIZE PUSH1 0x4 PUSH2 0x612 JUMP JUMPDEST PUSH2 0x37F JUMP JUMPDEST PUSH1 0x0 PUSH1 0x1 PUSH1 0x1 PUSH1 0xE0 SHL SUB NOT DUP3 AND PUSH4 0x7965DB0B PUSH1 0xE0 SHL EQ DUP1 PUSH2 0x2A6 JUMPI POP PUSH4 0x1FFC9A7 PUSH1 0xE0 SHL PUSH1 0x1 PUSH1 0x1 PUSH1 0xE0 SHL SUB NOT DUP4 AND EQ JUMPDEST SWAP3 SWAP2 POP POP JUMP JUMPDEST PUSH1 0x0 SWAP1 DUP2 MSTORE PUSH1 0x0 DUP1 MLOAD PUSH1 0x20 PUSH2 0x65A DUP4 CODECOPY DUP2 MLOAD SWAP2 MSTORE PUSH1 0x20 MSTORE PUSH1 0x40 SWAP1 KECCAK256 PUSH1 0x1 ADD SLOAD SWAP1 JUMP JUMPDEST PUSH2 0x2D7 DUP3 PUSH2 0x2AC JUMP JUMPDEST PUSH2 0x2E0 DUP2 PUSH2 0x39B JUMP JUMPDEST PUSH2 0x2EA DUP4 DUP4 PUSH2 0x3A8 JUMP JUMPDEST POP POP POP POP JUMP JUMPDEST PUSH1 0x1 PUSH1 0x1 PUSH1 0xA0 SHL SUB DUP2 AND CALLER EQ PUSH2 0x319 JUMPI PUSH1 0x40 MLOAD PUSH4 0x334BD919 PUSH1 0xE1 SHL DUP2 MSTORE PUSH1 0x4 ADD PUSH1 0x40 MLOAD DUP1 SWAP2 SUB SWAP1 REVERT JUMPDEST PUSH2 0x323 DUP3 DUP3 PUSH2 0x44D JUMP JUMPDEST POP POP POP JUMP JUMPDEST PUSH2 0x330 PUSH2 0x4C9 JUMP JUMPDEST PUSH2 0x338 PUSH2 0x519 JUMP JUMPDEST PUSH2 0x343 PUSH1 0x0 DUP3 PUSH2 0x3A8 JUMP JUMPDEST POP POP JUMP JUMPDEST PUSH1 0x0 SWAP2 DUP3 MSTORE PUSH1 0x0 DUP1 MLOAD PUSH1 0x20 PUSH2 0x65A DUP4 CODECOPY DUP2 MLOAD SWAP2 MSTORE PUSH1 0x20 SWAP1 DUP2 MSTORE PUSH1 0x40 DUP1 DUP5 KECCAK256 PUSH1 0x1 PUSH1 0x1 PUSH1 0xA0 SHL SUB SWAP4 SWAP1 SWAP4 AND DUP5 MSTORE SWAP2 SWAP1 MSTORE SWAP1 KECCAK256 SLOAD PUSH1 0xFF AND SWAP1 JUMP JUMPDEST PUSH2 0x388 DUP3 PUSH2 0x2AC JUMP JUMPDEST PUSH2 0x391 DUP2 PUSH2 0x39B JUMP JUMPDEST PUSH2 0x2EA DUP4 DUP4 PUSH2 0x44D JUMP JUMPDEST PUSH2 0x3A5 DUP2 CALLER PUSH2 0x521 JUMP JUMPDEST POP JUMP JUMPDEST PUSH1 0x0 PUSH1 0x0 DUP1 MLOAD PUSH1 0x20 PUSH2 0x65A DUP4 CODECOPY DUP2 MLOAD SWAP2 MSTORE PUSH2 0x3C3 DUP5 DUP5 PUSH2 0x347 JUMP JUMPDEST PUSH2 0x443 JUMPI PUSH1 0x0 DUP5 DUP2 MSTORE PUSH1 0x20 DUP3 DUP2 MSTORE PUSH1 0x40 DUP1 DUP4 KECCAK256 PUSH1 0x1 PUSH1 0x1 PUSH1 0xA0 SHL SUB DUP8 AND DUP5 MSTORE SWAP1 SWAP2 MSTORE SWAP1 KECCAK256 DUP1 SLOAD PUSH1 0xFF NOT AND PUSH1 0x1 OR SWAP1 SSTORE PUSH2 0x3F9 CALLER SWAP1 JUMP JUMPDEST PUSH1 0x1 PUSH1 0x1 PUSH1 0xA0 SHL SUB AND DUP4 PUSH1 0x1 PUSH1 0x1 PUSH1 0xA0 SHL SUB AND DUP6 PUSH32 0x2F8788117E7EFF1D82E926EC794901D17C78024A50270940304540A733656F0D PUSH1 0x40 MLOAD PUSH1 0x40 MLOAD DUP1 SWAP2 SUB SWAP1 LOG4 PUSH1 0x1 SWAP2 POP POP PUSH2 0x2A6 JUMP JUMPDEST PUSH1 0x0 SWAP2 POP POP PUSH2 0x2A6 JUMP JUMPDEST PUSH1 0x0 PUSH1 0x0 DUP1 MLOAD PUSH1 0x20 PUSH2 0x65A DUP4 CODECOPY DUP2 MLOAD SWAP2 MSTORE PUSH2 0x468 DUP5 DUP5 PUSH2 0x347 JUMP JUMPDEST ISZERO PUSH2 0x443 JUMPI PUSH1 0x0 DUP5 DUP2 MSTORE PUSH1 0x20 DUP3 DUP2 MSTORE PUSH1 0x40 DUP1 DUP4 KECCAK256 PUSH1 0x1 PUSH1 0x1 PUSH1 0xA0 SHL SUB DUP8 AND DUP1 DUP6 MSTORE SWAP3 MSTORE DUP1 DUP4 KECCAK256 DUP1 SLOAD PUSH1 0xFF NOT AND SWAP1 SSTORE MLOAD CALLER SWAP3 DUP8 SWAP2 PUSH32 0xF6391F5C32D9C69D2A47EA670B442974B53935D1EDC7FD64EB21E047A839171B SWAP2 SWAP1 LOG4 PUSH1 0x1 SWAP2 POP POP PUSH2 0x2A6 JUMP JUMPDEST PUSH32 0xF0C57E16840DF040F15088DC2F81FE391C3923BEC73E23A9662EFC9C229C6A00 SLOAD PUSH9 0x10000000000000000 SWAP1 DIV PUSH1 0xFF AND PUSH2 0x517 JUMPI PUSH1 0x40 MLOAD PUSH4 0x1AFCD79F PUSH1 0xE3 SHL DUP2 MSTORE PUSH1 0x4 ADD PUSH1 0x40 MLOAD DUP1 SWAP2 SUB SWAP1 REVERT JUMPDEST JUMP JUMPDEST PUSH2 0x517 PUSH2 0x4C9 JUMP JUMPDEST PUSH2 0x52B DUP3 DUP3 PUSH2 0x347 JUMP JUMPDEST PUSH2 0x343 JUMPI PUSH1 0x40 MLOAD PUSH4 0xE2517D3F PUSH1 0xE0 SHL DUP2 MSTORE PUSH1 0x1 PUSH1 0x1 PUSH1 0xA0 SHL SUB DUP3 AND PUSH1 0x4 DUP3 ADD MSTORE PUSH1 0x24 DUP2 ADD DUP4 SWAP1 MSTORE PUSH1 0x44 ADD PUSH1 0x40 MLOAD DUP1 SWAP2 SUB SWAP1 REVERT JUMPDEST PUSH1 0x0 PUSH1 0x20 DUP3 DUP5 SUB SLT ISZERO PUSH2 0x570 JUMPI PUSH1 0x0 DUP1 REVERT JUMPDEST DUP2 CALLDATALOAD PUSH1 0x1 PUSH1 0x1 PUSH1 0xE0 SHL SUB NOT DUP2 AND DUP2 EQ PUSH2 0x588 JUMPI PUSH1 0x0 DUP1 REVERT JUMPDEST SWAP4 SWAP3 POP POP POP JUMP JUMPDEST PUSH1 0x20 DUP2 MSTORE PUSH1 0x0 DUP3 MLOAD DUP1 PUSH1 0x20 DUP5 ADD MSTORE PUSH1 0x0 JUMPDEST DUP2 DUP2 LT ISZERO PUSH2 0x5BD JUMPI PUSH1 0x20 DUP2 DUP7 ADD DUP2 ADD MLOAD PUSH1 0x40 DUP7 DUP5 ADD ADD MSTORE ADD PUSH2 0x5A0 JUMP JUMPDEST POP PUSH1 0x0 PUSH1 0x40 DUP3 DUP6 ADD ADD MSTORE PUSH1 0x40 PUSH1 0x1F NOT PUSH1 0x1F DUP4 ADD AND DUP5 ADD ADD SWAP2 POP POP SWAP3 SWAP2 POP POP JUMP JUMPDEST PUSH1 0x0 PUSH1 0x20 DUP3 DUP5 SUB SLT ISZERO PUSH2 0x5EF JUMPI PUSH1 0x0 DUP1 REVERT JUMPDEST POP CALLDATALOAD SWAP2 SWAP1 POP JUMP JUMPDEST DUP1 CALLDATALOAD PUSH1 0x1 PUSH1 0x1 PUSH1 0xA0 SHL SUB DUP2 AND DUP2 EQ PUSH2 0x60D JUMPI PUSH1 0x0 DUP1 REVERT JUMPDEST SWAP2 SWAP1 POP JUMP JUMPDEST PUSH1 0x0 DUP1 PUSH1 0x40 DUP4 DUP6 SUB SLT ISZERO PUSH2 0x625 JUMPI PUSH1 0x0 DUP1 REVERT JUMPDEST DUP3 CALLDATALOAD SWAP2 POP PUSH2 0x635 PUSH1 0x20 DUP5 ADD PUSH2 0x5F6 JUMP JUMPDEST SWAP1 POP SWAP3 POP SWAP3 SWAP1 POP JUMP JUMPDEST PUSH1 0x0 PUSH1 0x20 DUP3 DUP5 SUB SLT ISZERO PUSH2 0x650 JUMPI PUSH1 0x0 DUP1 REVERT JUMPDEST PUSH2 0x588 DUP3 PUSH2 0x5F6 JUMP INVALID MUL 0xDD PUSH28 0xC7DEC4DCEEDDA775E58DD541E08A116C6C53815C0BD028192F7B6268 STOP LOG2 PUSH5 0x6970667358 0x22 SLT KECCAK256 0x28 0xC8 PUSH12 0x98DD1661886D4FBABBA9242A 0xED 0x26 0xC1 RETURN 0xB4 0xFB 0xAC SWAP5 0xE2 ADD PUSH5 0x7D9221EE09 0xC3 PUSH5 0x736F6C6343 STOP ADDMOD SHR STOP CALLER "
        },
        "methodIdentifiers": {
          "DEFAULT_ADMIN_ROLE()": "a217fddf",
          "ERROR_EXPIRED_RESOURCE()": "1ceae9c7",
          "ERROR_INVALID_PRICE()": "362c3ab8",
          "ERROR_NOT_FOUND()": "ad4fb5cd",
          "ERROR_PROCESS_FAILED()": "5c107264",
          "ERROR_UNAUTHORIZED_ACCESS()": "8a2b34b2",
          "MODERATOR_ROLE()": "797669c9",
          "getRoleAdmin(bytes32)": "248a9ca3",
          "grantRole(bytes32,address)": "2f2ff15d",
          "hasRole(bytes32,address)": "91d14854",
          "init_base_app(address)": "846d9c1b",
          "renounceRole(bytes32,address)": "36568abe",
          "revokeRole(bytes32,address)": "d547741f",
          "supportsInterface(bytes4)": "01ffc9a7"
        }
      },
      "storageLayout": {
        "storage": [],
        "types": null
      }
    }
  }
}